{
  "contractName": "BondingCurveUniversalMock",
  "abi": [
    {
      "constant": false,
      "inputs": [
        {
          "name": "_spender",
          "type": "address"
        },
        {
          "name": "_value",
          "type": "uint256"
        }
      ],
      "name": "approve",
      "outputs": [
        {
          "name": "",
          "type": "bool"
        }
      ],
      "payable": false,
      "stateMutability": "nonpayable",
      "type": "function"
    },
    {
      "constant": true,
      "inputs": [],
      "name": "reserveRatio",
      "outputs": [
        {
          "name": "",
          "type": "uint32"
        }
      ],
      "payable": false,
      "stateMutability": "view",
      "type": "function"
    },
    {
      "constant": true,
      "inputs": [],
      "name": "totalSupply",
      "outputs": [
        {
          "name": "",
          "type": "uint256"
        }
      ],
      "payable": false,
      "stateMutability": "view",
      "type": "function"
    },
    {
      "constant": false,
      "inputs": [
        {
          "name": "_from",
          "type": "address"
        },
        {
          "name": "_to",
          "type": "address"
        },
        {
          "name": "_value",
          "type": "uint256"
        }
      ],
      "name": "transferFrom",
      "outputs": [
        {
          "name": "",
          "type": "bool"
        }
      ],
      "payable": false,
      "stateMutability": "nonpayable",
      "type": "function"
    },
    {
      "constant": true,
      "inputs": [
        {
          "name": "_supply",
          "type": "uint256"
        },
        {
          "name": "_connectorBalance",
          "type": "uint256"
        },
        {
          "name": "_connectorWeight",
          "type": "uint32"
        },
        {
          "name": "_depositAmount",
          "type": "uint256"
        }
      ],
      "name": "calculatePurchaseReturn",
      "outputs": [
        {
          "name": "",
          "type": "uint256"
        }
      ],
      "payable": false,
      "stateMutability": "view",
      "type": "function"
    },
    {
      "constant": true,
      "inputs": [
        {
          "name": "_supply",
          "type": "uint256"
        },
        {
          "name": "_connectorBalance",
          "type": "uint256"
        },
        {
          "name": "_connectorWeight",
          "type": "uint32"
        },
        {
          "name": "_sellAmount",
          "type": "uint256"
        }
      ],
      "name": "calculateSaleReturn",
      "outputs": [
        {
          "name": "",
          "type": "uint256"
        }
      ],
      "payable": false,
      "stateMutability": "view",
      "type": "function"
    },
    {
      "constant": true,
      "inputs": [],
      "name": "version",
      "outputs": [
        {
          "name": "",
          "type": "string"
        }
      ],
      "payable": false,
      "stateMutability": "view",
      "type": "function"
    },
    {
      "constant": false,
      "inputs": [
        {
          "name": "_spender",
          "type": "address"
        },
        {
          "name": "_subtractedValue",
          "type": "uint256"
        }
      ],
      "name": "decreaseApproval",
      "outputs": [
        {
          "name": "",
          "type": "bool"
        }
      ],
      "payable": false,
      "stateMutability": "nonpayable",
      "type": "function"
    },
    {
      "constant": true,
      "inputs": [
        {
          "name": "_owner",
          "type": "address"
        }
      ],
      "name": "balanceOf",
      "outputs": [
        {
          "name": "balance",
          "type": "uint256"
        }
      ],
      "payable": false,
      "stateMutability": "view",
      "type": "function"
    },
    {
      "constant": true,
      "inputs": [],
      "name": "owner",
      "outputs": [
        {
          "name": "",
          "type": "address"
        }
      ],
      "payable": false,
      "stateMutability": "view",
      "type": "function"
    },
    {
      "constant": true,
      "inputs": [],
      "name": "poolBalance",
      "outputs": [
        {
          "name": "",
          "type": "uint256"
        }
      ],
      "payable": false,
      "stateMutability": "view",
      "type": "function"
    },
    {
      "constant": false,
      "inputs": [],
      "name": "buy",
      "outputs": [
        {
          "name": "",
          "type": "bool"
        }
      ],
      "payable": true,
      "stateMutability": "payable",
      "type": "function"
    },
    {
      "constant": false,
      "inputs": [
        {
          "name": "_to",
          "type": "address"
        },
        {
          "name": "_value",
          "type": "uint256"
        }
      ],
      "name": "transfer",
      "outputs": [
        {
          "name": "",
          "type": "bool"
        }
      ],
      "payable": false,
      "stateMutability": "nonpayable",
      "type": "function"
    },
    {
      "constant": false,
      "inputs": [
        {
          "name": "_gasPrice",
          "type": "uint256"
        }
      ],
      "name": "setGasPrice",
      "outputs": [],
      "payable": false,
      "stateMutability": "nonpayable",
      "type": "function"
    },
    {
      "constant": false,
      "inputs": [
        {
          "name": "_spender",
          "type": "address"
        },
        {
          "name": "_addedValue",
          "type": "uint256"
        }
      ],
      "name": "increaseApproval",
      "outputs": [
        {
          "name": "",
          "type": "bool"
        }
      ],
      "payable": false,
      "stateMutability": "nonpayable",
      "type": "function"
    },
    {
      "constant": true,
      "inputs": [
        {
          "name": "_owner",
          "type": "address"
        },
        {
          "name": "_spender",
          "type": "address"
        }
      ],
      "name": "allowance",
      "outputs": [
        {
          "name": "",
          "type": "uint256"
        }
      ],
      "payable": false,
      "stateMutability": "view",
      "type": "function"
    },
    {
      "constant": false,
      "inputs": [
        {
          "name": "sellAmount",
          "type": "uint256"
        }
      ],
      "name": "sell",
      "outputs": [
        {
          "name": "",
          "type": "bool"
        }
      ],
      "payable": false,
      "stateMutability": "nonpayable",
      "type": "function"
    },
    {
      "constant": false,
      "inputs": [
        {
          "name": "newOwner",
          "type": "address"
        }
      ],
      "name": "transferOwnership",
      "outputs": [],
      "payable": false,
      "stateMutability": "nonpayable",
      "type": "function"
    },
    {
      "constant": true,
      "inputs": [],
      "name": "gasPrice",
      "outputs": [
        {
          "name": "",
          "type": "uint256"
        }
      ],
      "payable": false,
      "stateMutability": "view",
      "type": "function"
    },
    {
      "inputs": [
        {
          "name": "_totalSupply",
          "type": "uint256"
        },
        {
          "name": "_poolBalance",
          "type": "uint256"
        },
        {
          "name": "_reserveRatio",
          "type": "uint32"
        }
      ],
      "payable": false,
      "stateMutability": "nonpayable",
      "type": "constructor"
    },
    {
      "payable": true,
      "stateMutability": "payable",
      "type": "fallback"
    },
    {
      "anonymous": false,
      "inputs": [
        {
          "indexed": false,
          "name": "amountMinted",
          "type": "uint256"
        },
        {
          "indexed": false,
          "name": "totalCost",
          "type": "uint256"
        }
      ],
      "name": "LogMint",
      "type": "event"
    },
    {
      "anonymous": false,
      "inputs": [
        {
          "indexed": false,
          "name": "amountWithdrawn",
          "type": "uint256"
        },
        {
          "indexed": false,
          "name": "reward",
          "type": "uint256"
        }
      ],
      "name": "LogWithdraw",
      "type": "event"
    },
    {
      "anonymous": false,
      "inputs": [
        {
          "indexed": false,
          "name": "logString",
          "type": "string"
        },
        {
          "indexed": false,
          "name": "value",
          "type": "uint256"
        }
      ],
      "name": "LogBondingCurve",
      "type": "event"
    },
    {
      "anonymous": false,
      "inputs": [
        {
          "indexed": true,
          "name": "previousOwner",
          "type": "address"
        },
        {
          "indexed": true,
          "name": "newOwner",
          "type": "address"
        }
      ],
      "name": "OwnershipTransferred",
      "type": "event"
    },
    {
      "anonymous": false,
      "inputs": [
        {
          "indexed": true,
          "name": "owner",
          "type": "address"
        },
        {
          "indexed": true,
          "name": "spender",
          "type": "address"
        },
        {
          "indexed": false,
          "name": "value",
          "type": "uint256"
        }
      ],
      "name": "Approval",
      "type": "event"
    },
    {
      "anonymous": false,
      "inputs": [
        {
          "indexed": true,
          "name": "from",
          "type": "address"
        },
        {
          "indexed": true,
          "name": "to",
          "type": "address"
        },
        {
          "indexed": false,
          "name": "value",
          "type": "uint256"
        }
      ],
      "name": "Transfer",
      "type": "event"
    }
  ],
  "bytecode": "0x60606040526040805190810160405280600381526020017f302e330000000000000000000000000000000000000000000000000000000000815250600390805190602001906200005192919062001007565b50600060875534156200006357600080fd5b6040516060806200335183398101604052808051906020019091908051906020019091908051906020019091905050701c35fedd14ffffffffffffffffffffffff60046020608081101515620000b557fe5b0181905550701b0ce43b323fffffffffffffffffffffff60046021608081101515620000dd57fe5b01819055507019f0028ec1ffffffffffffffffffffffff600460226080811015156200010557fe5b01819055507018ded91f0e7fffffffffffffffffffffff600460236080811015156200012d57fe5b01819055507017d8ec7f0417ffffffffffffffffffffff600460246080811015156200015557fe5b01819055507016ddc6556cdbffffffffffffffffffffff600460256080811015156200017d57fe5b01819055507015ecf52776a1ffffffffffffffffffffff60046026608081101515620001a557fe5b01819055507015060c256cb2ffffffffffffffffffffff60046027608081101515620001cd57fe5b0181905550701428a2f98d72ffffffffffffffffffffff60046028608081101515620001f557fe5b01819055507013545598e5c23fffffffffffffffffffff600460296080811015156200021d57fe5b0181905550701288c4161ce1dfffffffffffffffffffff6004602a6080811015156200024557fe5b01819055507011c592761c666fffffffffffffffffffff6004602b6080811015156200026d57fe5b018190555070110a688680a757ffffffffffffffffffff6004602c6080811015156200029557fe5b0181905550701056f1b5bedf77ffffffffffffffffffff6004602d608081101515620002bd57fe5b0181905550700faadceceeff8bffffffffffffffffffff6004602e608081101515620002e557fe5b0181905550700f05dc6b27edadffffffffffffffffffff6004602f6080811015156200030d57fe5b0181905550700e67a5a25da4107fffffffffffffffffff600460306080811015156200033557fe5b0181905550700dcff115b14eedffffffffffffffffffff600460316080811015156200035d57fe5b0181905550700d3e7a392431239fffffffffffffffffff600460326080811015156200038557fe5b0181905550700cb2ff529eb71e4fffffffffffffffffff60046033608081101515620003ad57fe5b0181905550700c2d415c3db974afffffffffffffffffff60046034608081101515620003d557fe5b0181905550700bad03e7d883f69bffffffffffffffffff60046035608081101515620003fd57fe5b0181905550700b320d03b2c343d5ffffffffffffffffff600460366080811015156200042557fe5b0181905550700abc25204e02828dffffffffffffffffff600460376080811015156200044d57fe5b0181905550700a4b16f74ee4bb207fffffffffffffffff600460386080811015156200047557fe5b01819055507009deaf736ac1f569ffffffffffffffffff600460396080811015156200049d57fe5b0181905550700976bd9952c7aa957fffffffffffffffff6004603a608081101515620004c557fe5b01819055507009131271922eaa606fffffffffffffffff6004603b608081101515620004ed57fe5b01819055507008b380f3558668c46fffffffffffffffff6004603c6080811015156200051557fe5b0181905550700857ddf0117efa215bffffffffffffffff6004603d6080811015156200053d57fe5b01819055507007ffffffffffffffffffffffffffffffff6004603e6080811015156200056557fe5b01819055507007abbf6f6abb9d087fffffffffffffffff6004603f6080811015156200058d57fe5b018190555070075af62cbac95f7dfa7fffffffffffffff60046040608081101515620005b557fe5b018190555070070d7fb7452e187ac13fffffffffffffff60046041608081101515620005dd57fe5b01819055507006c3390ecc8af379295fffffffffffffff600460426080811015156200060557fe5b018190555070067c00a3b07ffc01fd6fffffffffffffff600460436080811015156200062d57fe5b0181905550700637b647c39cbb9d3d27ffffffffffffff600460446080811015156200065557fe5b01819055507005f63b1fc104dbd39587ffffffffffffff600460456080811015156200067d57fe5b01819055507005b771955b36e12f7235ffffffffffffff60046046608081101515620006a557fe5b018190555070057b3d49dda84556d6f6ffffffffffffff60046047608081101515620006cd57fe5b018190555070054183095b2c8ececf30ffffffffffffff60046048608081101515620006f557fe5b018190555070050a28be635ca2b888f77fffffffffffff600460496080811015156200071d57fe5b01819055507004d5156639708c9db33c3fffffffffffff6004604a6080811015156200074557fe5b01819055507004a23105873875bd52dfdfffffffffffff6004604b6080811015156200076d57fe5b0181905550700471649d87199aa990756fffffffffffff6004604c6080811015156200079557fe5b01819055507004429a21a029d4c1457cfbffffffffffff6004604d608081101515620007bd57fe5b0181905550700415bc6d6fb7dd71af2cb3ffffffffffff6004604e608081101515620007e557fe5b01819055507003eab73b3bbfe282243ce1ffffffffffff6004604f6080811015156200080d57fe5b01819055507003c1771ac9fb6b4c18e229ffffffffffff600460506080811015156200083557fe5b0181905550700399e96897690418f785257fffffffffff600460516080811015156200085d57fe5b0181905550700373fc456c53bb779bf0ea9fffffffffff600460526080811015156200088557fe5b018190555070034f9e8e490c48e67e6ab8bfffffffffff60046053608081101515620008ad57fe5b018190555070032cbfd4a7adc790560b3337ffffffffff60046054608081101515620008d557fe5b018190555070030b50570f6e5d2acca94613ffffffffff60046055608081101515620008fd57fe5b01819055507002eb40f9f620fda6b56c2861ffffffffff600460566080811015156200092557fe5b01819055507002cc8340ecb0d0f520a6af58ffffffffff600460576080811015156200094d57fe5b01819055507002af09481380a0a35cf1ba02ffffffffff600460586080811015156200097557fe5b0181905550700292c5bdd3b92ec810287b1b3fffffffff600460596080811015156200099d57fe5b0181905550700277abdcdab07d5a77ac6d6b9fffffffff6004605a608081101515620009c557fe5b018190555070025daf6654b1eaa55fd64df5efffffffff6004605b608081101515620009ed57fe5b0181905550700244c49c648baa98192dce88b7ffffffff6004605c60808110151562000a1557fe5b018190555070022ce03cd5619a311b2471268bffffffff6004605d60808110151562000a3d57fe5b0181905550700215f77c045fbe885654a44a0fffffffff6004605e60808110151562000a6557fe5b01819055507001ffffffffffffffffffffffffffffffff6004605f60808110151562000a8d57fe5b01819055507001eaefdbdaaee7421fc4d3ede5ffffffff6004606060808110151562000ab557fe5b01819055507001d6bd8b2eb257df7e8ca57b09bfffffff6004606160808110151562000add57fe5b01819055507001c35fedd14b861eb0443f7f133fffffff6004606260808110151562000b0557fe5b01819055507001b0ce43b322bcde4a56e8ada5afffffff6004606360808110151562000b2d57fe5b018190555070019f0028ec1fff007f5a195a39dfffffff6004606460808110151562000b5557fe5b018190555070018ded91f0e72ee74f49b15ba527ffffff6004606560808110151562000b7d57fe5b018190555070017d8ec7f04136f4e5615fd41a63ffffff6004606660808110151562000ba557fe5b018190555070016ddc6556cdb84bdc8d12d22e6fffffff6004606760808110151562000bcd57fe5b018190555070015ecf52776a1155b5bd8395814f7fffff6004606860808110151562000bf557fe5b018190555070015060c256cb23b3b3cc3754cf40ffffff6004606960808110151562000c1d57fe5b01819055507001428a2f98d728ae223ddab715be3fffff6004606a60808110151562000c4557fe5b018190555070013545598e5c23276ccf0ede68034fffff6004606b60808110151562000c6d57fe5b01819055507001288c4161ce1d6f54b7f61081194fffff6004606c60808110151562000c9557fe5b018190555070011c592761c666aa641d5a01a40f17ffff6004606d60808110151562000cbd57fe5b0181905550700110a688680a7530515f3e6e6cfdcdffff6004606e60808110151562000ce557fe5b01819055507001056f1b5bedf75c6bcb2ce8aed428ffff6004606f60808110151562000d0d57fe5b01819055506ffaadceceeff8a0890f3875f008277fff6004607060808110151562000d3457fe5b01819055506ff05dc6b27edad306388a600f6ba0bfff6004607160808110151562000d5b57fe5b01819055506fe67a5a25da41063de1495d5b18cdbfff6004607260808110151562000d8257fe5b01819055506fdcff115b14eedde6fc3aa5353f2e4fff6004607360808110151562000da957fe5b01819055506fd3e7a3924312399f9aae2e0f868f8fff6004607460808110151562000dd057fe5b01819055506fcb2ff529eb71e41582cccd5a1ee26fff6004607560808110151562000df757fe5b01819055506fc2d415c3db974ab32a51840c0b67edff6004607660808110151562000e1e57fe5b01819055506fbad03e7d883f69ad5b0a186184e06bff6004607760808110151562000e4557fe5b01819055506fb320d03b2c343d4829abd6075f0cc5ff6004607860808110151562000e6c57fe5b01819055506fabc25204e02828d73c6e80bcdb1a95bf6004607960808110151562000e9357fe5b01819055506fa4b16f74ee4bb2040a1ec6c15fbbf2df6004607a60808110151562000eba57fe5b01819055506f9deaf736ac1f569deb1b5ae3f36c130f6004607b60808110151562000ee157fe5b01819055506f976bd9952c7aa957f5937d790ef650376004607c60808110151562000f0857fe5b01819055506f9131271922eaa6064b73a22d0bd4f2bf6004607d60808110151562000f2f57fe5b01819055506f8b380f3558668c46c91c49a2f8e967b96004607e60808110151562000f5657fe5b01819055506f857ddf0117efa215952912839f6473e66004607f60808110151562000f7d57fe5b018190555033608460006101000a81548173ffffffffffffffffffffffffffffffffffffffff021916908373ffffffffffffffffffffffffffffffffffffffff16021790555080608660006101000a81548163ffffffff021916908363ffffffff160217905550826001819055508160858190555064060db88400608781905550505050620010b6565b828054600181600116156101000203166002900490600052602060002090601f016020900481019282601f106200104a57805160ff19168380011785556200107b565b828001600101855582156200107b579182015b828111156200107a5782518255916020019190600101906200105d565b5b5090506200108a91906200108e565b5090565b620010b391905b80821115620010af57600081600090555060010162001095565b5090565b90565b61228b80620010c66000396000f300606060405260043610610107576000357c0100000000000000000000000000000000000000000000000000000000900463ffffffff168063095ea7b3146101125780630c7d5cd81461016c57806318160ddd146101a157806323b872dd146101ca57806329a00e7c1461024357806349f9b0f71461029b57806354fd4d50146102f3578063661884631461038157806370a08231146103db5780638da5cb5b1461042857806396365d441461047d578063a6f2ae3a146104a6578063a9059cbb146104c8578063bf1fe42014610522578063d73dd62314610545578063dd62ed3e1461059f578063e4849b321461060b578063f2fde38b14610646578063fe173b971461067f575b61010f6106a8565b50005b341561011d57600080fd5b610152600480803573ffffffffffffffffffffffffffffffffffffffff169060200190919080359060200190919050506107fc565b604051808215151515815260200191505060405180910390f35b341561017757600080fd5b61017f6108ee565b604051808263ffffffff1663ffffffff16815260200191505060405180910390f35b34156101ac57600080fd5b6101b4610904565b6040518082815260200191505060405180910390f35b34156101d557600080fd5b610229600480803573ffffffffffffffffffffffffffffffffffffffff1690602001909190803573ffffffffffffffffffffffffffffffffffffffff1690602001909190803590602001909190505061090e565b604051808215151515815260200191505060405180910390f35b341561024e57600080fd5b610285600480803590602001909190803590602001909190803563ffffffff16906020019091908035906020019091905050610cc8565b6040518082815260200191505060405180910390f35b34156102a657600080fd5b6102dd600480803590602001909190803590602001909190803563ffffffff16906020019091908035906020019091905050610da7565b6040518082815260200191505060405180910390f35b34156102fe57600080fd5b610306610eab565b6040518080602001828103825283818151815260200191508051906020019080838360005b8381101561034657808201518184015260208101905061032b565b50505050905090810190601f1680156103735780820380516001836020036101000a031916815260200191505b509250505060405180910390f35b341561038c57600080fd5b6103c1600480803573ffffffffffffffffffffffffffffffffffffffff16906020019091908035906020019091905050610f49565b604051808215151515815260200191505060405180910390f35b34156103e657600080fd5b610412600480803573ffffffffffffffffffffffffffffffffffffffff169060200190919050506111da565b6040518082815260200191505060405180910390f35b341561043357600080fd5b61043b611222565b604051808273ffffffffffffffffffffffffffffffffffffffff1673ffffffffffffffffffffffffffffffffffffffff16815260200191505060405180910390f35b341561048857600080fd5b610490611248565b6040518082815260200191505060405180910390f35b6104ae6106a8565b604051808215151515815260200191505060405180910390f35b34156104d357600080fd5b610508600480803573ffffffffffffffffffffffffffffffffffffffff1690602001909190803590602001909190505061124e565b604051808215151515815260200191505060405180910390f35b341561052d57600080fd5b610543600480803590602001909190505061146d565b005b341561055057600080fd5b610585600480803573ffffffffffffffffffffffffffffffffffffffff169060200190919080359060200190919050506114e2565b604051808215151515815260200191505060405180910390f35b34156105aa57600080fd5b6105f5600480803573ffffffffffffffffffffffffffffffffffffffff1690602001909190803573ffffffffffffffffffffffffffffffffffffffff169060200190919050506116de565b6040518082815260200191505060405180910390f35b341561061657600080fd5b61062c6004808035906020019091905050611765565b604051808215151515815260200191505060405180910390f35b341561065157600080fd5b61067d600480803573ffffffffffffffffffffffffffffffffffffffff16906020019091905050611945565b005b341561068a57600080fd5b610692611a9d565b6040518082815260200191505060405180910390f35b6000806087543a111515156106b957fe5b6000341115156106c857600080fd5b6106ea600154608554608660009054906101000a900463ffffffff1634610cc8565b905061070181600154611aa390919063ffffffff16565b600181905550610758816000803373ffffffffffffffffffffffffffffffffffffffff1673ffffffffffffffffffffffffffffffffffffffff16815260200190815260200160002054611aa390919063ffffffff16565b6000803373ffffffffffffffffffffffffffffffffffffffff1673ffffffffffffffffffffffffffffffffffffffff168152602001908152602001600020819055506107af34608554611aa390919063ffffffff16565b6085819055507fe7360c0fa1984a85874443100f5b25dd4f84192659660eb199f6c96e11defbcb8134604051808381526020018281526020019250505060405180910390a1600191505090565b600081600260003373ffffffffffffffffffffffffffffffffffffffff1673ffffffffffffffffffffffffffffffffffffffff16815260200190815260200160002060008573ffffffffffffffffffffffffffffffffffffffff1673ffffffffffffffffffffffffffffffffffffffff168152602001908152602001600020819055508273ffffffffffffffffffffffffffffffffffffffff163373ffffffffffffffffffffffffffffffffffffffff167f8c5be1e5ebec7d5bd14f71427d1e84f3dd0314c0f7b2291e5b200ac8c7c3b925846040518082815260200191505060405180910390a36001905092915050565b608660009054906101000a900463ffffffff1681565b6000600154905090565b60008073ffffffffffffffffffffffffffffffffffffffff168373ffffffffffffffffffffffffffffffffffffffff161415151561094b57600080fd5b6000808573ffffffffffffffffffffffffffffffffffffffff1673ffffffffffffffffffffffffffffffffffffffff16815260200190815260200160002054821115151561099857600080fd5b600260008573ffffffffffffffffffffffffffffffffffffffff1673ffffffffffffffffffffffffffffffffffffffff16815260200190815260200160002060003373ffffffffffffffffffffffffffffffffffffffff1673ffffffffffffffffffffffffffffffffffffffff168152602001908152602001600020548211151515610a2357600080fd5b610a74826000808773ffffffffffffffffffffffffffffffffffffffff1673ffffffffffffffffffffffffffffffffffffffff16815260200190815260200160002054611ac190919063ffffffff16565b6000808673ffffffffffffffffffffffffffffffffffffffff1673ffffffffffffffffffffffffffffffffffffffff16815260200190815260200160002081905550610b07826000808673ffffffffffffffffffffffffffffffffffffffff1673ffffffffffffffffffffffffffffffffffffffff16815260200190815260200160002054611aa390919063ffffffff16565b6000808573ffffffffffffffffffffffffffffffffffffffff1673ffffffffffffffffffffffffffffffffffffffff16815260200190815260200160002081905550610bd882600260008773ffffffffffffffffffffffffffffffffffffffff1673ffffffffffffffffffffffffffffffffffffffff16815260200190815260200160002060003373ffffffffffffffffffffffffffffffffffffffff1673ffffffffffffffffffffffffffffffffffffffff16815260200190815260200160002054611ac190919063ffffffff16565b600260008673ffffffffffffffffffffffffffffffffffffffff1673ffffffffffffffffffffffffffffffffffffffff16815260200190815260200160002060003373ffffffffffffffffffffffffffffffffffffffff1673ffffffffffffffffffffffffffffffffffffffff168152602001908152602001600020819055508273ffffffffffffffffffffffffffffffffffffffff168473ffffffffffffffffffffffffffffffffffffffff167fddf252ad1be2c89b69c2b068fc378daa952ba7f163c4a11628f55a4df523b3ef846040518082815260200191505060405180910390a3600190509392505050565b60008060008060008089118015610cdf5750600088115b8015610cf1575060008763ffffffff16115b8015610d0c5750620f424063ffffffff168763ffffffff1611155b1515610d1757600080fd5b6000861415610d295760009450610d9b565b620f424063ffffffff168763ffffffff161415610d5c5787610d4b8a88611ada565b811515610d5457fe5b049450610d9b565b610d668689611b0d565b9150610d77828989620f4240611b2b565b80945081955050508260ff16610d8d8a86611ada565b9060020a9004905088810394505b50505050949350505050565b60008060008060008060008a118015610dc05750600089115b8015610dd2575060008863ffffffff16115b8015610ded5750620f424063ffffffff168863ffffffff1611155b8015610df95750898711155b1515610e0457600080fd5b6000871415610e165760009550610e9e565b89871415610e2657889550610e9e565b620f424063ffffffff168863ffffffff161415610e595789610e488a89611ada565b811515610e5157fe5b049550610e9e565b868a039250610e6d8a84620f42408b611b2b565b8095508196505050610e7f8986611ada565b91508360ff16899060020a02905084818303811515610e9a57fe5b0495505b5050505050949350505050565b60038054600181600116156101000203166002900480601f016020809104026020016040519081016040528092919081815260200182805460018160011615610100020316600290048015610f415780601f10610f1657610100808354040283529160200191610f41565b820191906000526020600020905b815481529060010190602001808311610f2457829003601f168201915b505050505081565b600080600260003373ffffffffffffffffffffffffffffffffffffffff1673ffffffffffffffffffffffffffffffffffffffff16815260200190815260200160002060008573ffffffffffffffffffffffffffffffffffffffff1673ffffffffffffffffffffffffffffffffffffffff1681526020019081526020016000205490508083111561105a576000600260003373ffffffffffffffffffffffffffffffffffffffff1673ffffffffffffffffffffffffffffffffffffffff16815260200190815260200160002060008673ffffffffffffffffffffffffffffffffffffffff1673ffffffffffffffffffffffffffffffffffffffff168152602001908152602001600020819055506110ee565b61106d8382611ac190919063ffffffff16565b600260003373ffffffffffffffffffffffffffffffffffffffff1673ffffffffffffffffffffffffffffffffffffffff16815260200190815260200160002060008673ffffffffffffffffffffffffffffffffffffffff1673ffffffffffffffffffffffffffffffffffffffff168152602001908152602001600020819055505b8373ffffffffffffffffffffffffffffffffffffffff163373ffffffffffffffffffffffffffffffffffffffff167f8c5be1e5ebec7d5bd14f71427d1e84f3dd0314c0f7b2291e5b200ac8c7c3b925600260003373ffffffffffffffffffffffffffffffffffffffff1673ffffffffffffffffffffffffffffffffffffffff16815260200190815260200160002060008873ffffffffffffffffffffffffffffffffffffffff1673ffffffffffffffffffffffffffffffffffffffff168152602001908152602001600020546040518082815260200191505060405180910390a3600191505092915050565b60008060008373ffffffffffffffffffffffffffffffffffffffff1673ffffffffffffffffffffffffffffffffffffffff168152602001908152602001600020549050919050565b608460009054906101000a900473ffffffffffffffffffffffffffffffffffffffff1681565b60855481565b60008073ffffffffffffffffffffffffffffffffffffffff168373ffffffffffffffffffffffffffffffffffffffff161415151561128b57600080fd5b6000803373ffffffffffffffffffffffffffffffffffffffff1673ffffffffffffffffffffffffffffffffffffffff1681526020019081526020016000205482111515156112d857600080fd5b611329826000803373ffffffffffffffffffffffffffffffffffffffff1673ffffffffffffffffffffffffffffffffffffffff16815260200190815260200160002054611ac190919063ffffffff16565b6000803373ffffffffffffffffffffffffffffffffffffffff1673ffffffffffffffffffffffffffffffffffffffff168152602001908152602001600020819055506113bc826000808673ffffffffffffffffffffffffffffffffffffffff1673ffffffffffffffffffffffffffffffffffffffff16815260200190815260200160002054611aa390919063ffffffff16565b6000808573ffffffffffffffffffffffffffffffffffffffff1673ffffffffffffffffffffffffffffffffffffffff168152602001908152602001600020819055508273ffffffffffffffffffffffffffffffffffffffff163373ffffffffffffffffffffffffffffffffffffffff167fddf252ad1be2c89b69c2b068fc378daa952ba7f163c4a11628f55a4df523b3ef846040518082815260200191505060405180910390a36001905092915050565b608460009054906101000a900473ffffffffffffffffffffffffffffffffffffffff1673ffffffffffffffffffffffffffffffffffffffff163373ffffffffffffffffffffffffffffffffffffffff161415156114c957600080fd5b6000811115156114d857600080fd5b8060878190555050565b600061157382600260003373ffffffffffffffffffffffffffffffffffffffff1673ffffffffffffffffffffffffffffffffffffffff16815260200190815260200160002060008673ffffffffffffffffffffffffffffffffffffffff1673ffffffffffffffffffffffffffffffffffffffff16815260200190815260200160002054611aa390919063ffffffff16565b600260003373ffffffffffffffffffffffffffffffffffffffff1673ffffffffffffffffffffffffffffffffffffffff16815260200190815260200160002060008573ffffffffffffffffffffffffffffffffffffffff1673ffffffffffffffffffffffffffffffffffffffff168152602001908152602001600020819055508273ffffffffffffffffffffffffffffffffffffffff163373ffffffffffffffffffffffffffffffffffffffff167f8c5be1e5ebec7d5bd14f71427d1e84f3dd0314c0f7b2291e5b200ac8c7c3b925600260003373ffffffffffffffffffffffffffffffffffffffff1673ffffffffffffffffffffffffffffffffffffffff16815260200190815260200160002060008773ffffffffffffffffffffffffffffffffffffffff1673ffffffffffffffffffffffffffffffffffffffff168152602001908152602001600020546040518082815260200191505060405180910390a36001905092915050565b6000600260008473ffffffffffffffffffffffffffffffffffffffff1673ffffffffffffffffffffffffffffffffffffffff16815260200190815260200160002060008373ffffffffffffffffffffffffffffffffffffffff1673ffffffffffffffffffffffffffffffffffffffff16815260200190815260200160002054905092915050565b6000806087543a1115151561177657fe5b6000831180156117c45750826000803373ffffffffffffffffffffffffffffffffffffffff1673ffffffffffffffffffffffffffffffffffffffff1681526020019081526020016000205410155b15156117cf57600080fd5b6117f1600154608554608660009054906101000a900463ffffffff1686610da7565b90503373ffffffffffffffffffffffffffffffffffffffff166108fc829081150290604051600060405180830381858888f19350505050151561183357600080fd5b61184881608554611ac190919063ffffffff16565b60858190555061189f836000803373ffffffffffffffffffffffffffffffffffffffff1673ffffffffffffffffffffffffffffffffffffffff16815260200190815260200160002054611ac190919063ffffffff16565b6000803373ffffffffffffffffffffffffffffffffffffffff1673ffffffffffffffffffffffffffffffffffffffff168152602001908152602001600020819055506118f683600154611ac190919063ffffffff16565b6001819055507f210405eb88ac7589aa9de0a6e36b9c9d3cd6e4061b74363d250a77afe3c6efb78382604051808381526020018281526020019250505060405180910390a16001915050919050565b608460009054906101000a900473ffffffffffffffffffffffffffffffffffffffff1673ffffffffffffffffffffffffffffffffffffffff163373ffffffffffffffffffffffffffffffffffffffff161415156119a157600080fd5b600073ffffffffffffffffffffffffffffffffffffffff168173ffffffffffffffffffffffffffffffffffffffff16141515156119dd57600080fd5b8073ffffffffffffffffffffffffffffffffffffffff16608460009054906101000a900473ffffffffffffffffffffffffffffffffffffffff1673ffffffffffffffffffffffffffffffffffffffff167f8be0079c531659141344cd1fd0a4f28419497f9722a3daafe3b4186f6b6457e060405160405180910390a380608460006101000a81548173ffffffffffffffffffffffffffffffffffffffff021916908373ffffffffffffffffffffffffffffffffffffffff16021790555050565b60875481565b6000808284019050838110151515611ab757fe5b8091505092915050565b6000828211151515611acf57fe5b818303905092915050565b60008082840290506000841480611afb5750828482811515611af857fe5b04145b1515611b0357fe5b8091505092915050565b6000808284019050838110151515611b2157fe5b8091505092915050565b6000806000808463ffffffff168663ffffffff16611b498a8a611b88565b02811515611b5357fe5b049150611b5f82611cef565b9050611b7881607f0360ff16839060020a900482611daf565b8193509350505094509492505050565b60008060008060007001ffffffffffffffffffffffffffffffff8711151515611bad57fe5b60009350856f800000000000000000000000000000008802811515611bce57fe5b04925070010000000000000000000000000000000083101515611c3757611c0f6f8000000000000000000000000000000084811515611c0957fe5b046121d3565b91508160ff16839060020a900492506f800000000000000000000000000000008260ff160293505b6f80000000000000000000000000000000831115611cc557607f90505b60008160ff161115611cc4576f80000000000000000000000000000000838402811515611c7d57fe5b04925070010000000000000000000000000000000083101515611cb8576001839060020a900492506001810360ff1660019060020a02840193505b80600190039050611c54565b5b607a60ff166f02c5c85fdf473de6af278ece600fcbda85029060020a900494505050505092915050565b60008060008060209250607f91505b8160ff166001840160ff161015611d5057600282840160ff16811515611d2057fe5b0490508460048260ff16608081101515611d3657fe5b0154101515611d4757809250611d4b565b8091505b611cfe565b8460048360ff16608081101515611d6357fe5b0154101515611d7457819350611da7565b8460048460ff16608081101515611d8757fe5b0154101515611d9857829350611da7565b60001515611da257fe5b600093505b505050919050565b6000806000849150600090508360ff168583029060020a900491506f03442c4e6074a82f1797f72ac00000008202810190508360ff168583029060020a900491506f0116b96f757c380fb287fd0e400000008202810190508360ff168583029060020a900491506e45ae5bdd5f0e03eca1ff43900000008202810190508360ff168583029060020a900491506e0defabf91302cd95b9ffda500000008202810190508360ff168583029060020a900491506e02529ca9832b22439efff9b80000008202810190508360ff168583029060020a900491506d54f1cf12bd04e516b6da880000008202810190508360ff168583029060020a900491506d0a9e39e257a09ca2d6db510000008202810190508360ff168583029060020a900491506d012e066e7b839fa050c3090000008202810190508360ff168583029060020a900491506c1e33d7d926c329a1ad1a8000008202810190508360ff168583029060020a900491506c02bee513bdb4a6b19b5f8000008202810190508360ff168583029060020a900491506b3a9316fa79b88eccf2a000008202810190508360ff168583029060020a900491506b048177ebe1fa8123752000008202810190508360ff168583029060020a900491506a5263fe90242dcbacf000008202810190508360ff168583029060020a900491506a057e22099c030d941000008202810190508360ff168583029060020a900491506957e22099c030d94100008202810190508360ff168583029060020a9004915069052b6b545699763100008202810190508360ff168583029060020a90049150684985f67696bf7480008202810190508360ff168583029060020a900491506803dea12ea99e4980008202810190508360ff168583029060020a900491506731880f2214b6e0008202810190508360ff168583029060020a9004915067025bcff56eb360008202810190508360ff168583029060020a90049150661b722e10ab10008202810190508360ff168583029060020a900491506601317c700770008202810190508360ff168583029060020a90049150650cba84aafa008202810190508360ff168583029060020a900491506482573a0a008202810190508360ff168583029060020a900491506405035ad9008202810190508360ff168583029060020a90049150632f881b008202810190508360ff168583029060020a900491506301b293408202810190508360ff168583029060020a90049150620efc408202810190508360ff168583029060020a90049150617fe08202810190508360ff168583029060020a900491506104208202810190508360ff168583029060020a9004915060218202810190508360ff168583029060020a9004915060018202810190508360ff1660019060020a02856f0688589cc0e9505e2f2fee5580000000838115156121c657fe5b0401019250505092915050565b600080600080915061010084101561220a575b6001841115612205576001849060020a900493506001820191506121e6565b612255565b608090505b60008160ff161115612254578060ff1660019060020a0284101515612241578060ff16849060020a9004935080821791505b60018160ff169060020a9004905061220f565b5b81925050509190505600a165627a7a7230582061605f55613ffb0efb4218cba6d964002c5460c12c6717b7fa939bc18c12e3150029",
  "source": "pragma solidity ^0.4.18;\n\nimport \"../BondingCurveUniversal.sol\";\n\ncontract BondingCurveUniversalMock is BondingCurveUniversal{\n  function BondingCurveUniversalMock(\n    uint256 _totalSupply,\n    uint256 _poolBalance,\n    uint32 _reserveRatio) public {\n\n    reserveRatio = _reserveRatio;\n    totalSupply_ = _totalSupply;\n    poolBalance = _poolBalance;\n    gasPrice = 26 * (10 ** 9);\n  }\n}",
  "sourcePath": "/Users/billy/react/bonding-token-ui/src/relevant-contracts/contracts/mocks/BondingCurveUniversalMock.sol",
  "compiler": {
    "name": "solc",
    "version": "0.4.19+commit.c4cbbb05.Emscripten.clang"
  },
  "schemaVersion": "1.0.1",
  "updatedAt": "2018-02-18T02:56:24.969Z"
}