{
  "contractName": "RelevantBondingCurveMock",
  "abi": [
    {
      "constant": false,
      "inputs": [
        {
          "name": "_spender",
          "type": "address"
        },
        {
          "name": "_value",
          "type": "uint256"
        }
      ],
      "name": "approve",
      "outputs": [
        {
          "name": "",
          "type": "bool"
        }
      ],
      "payable": false,
      "stateMutability": "nonpayable",
      "type": "function"
    },
    {
      "constant": true,
      "inputs": [],
      "name": "inflationSupply",
      "outputs": [
        {
          "name": "",
          "type": "uint256"
        }
      ],
      "payable": false,
      "stateMutability": "view",
      "type": "function"
    },
    {
      "constant": true,
      "inputs": [],
      "name": "reserveRatio",
      "outputs": [
        {
          "name": "",
          "type": "uint32"
        }
      ],
      "payable": false,
      "stateMutability": "view",
      "type": "function"
    },
    {
      "constant": true,
      "inputs": [],
      "name": "totalSupply",
      "outputs": [
        {
          "name": "",
          "type": "uint256"
        }
      ],
      "payable": false,
      "stateMutability": "view",
      "type": "function"
    },
    {
      "constant": false,
      "inputs": [
        {
          "name": "_from",
          "type": "address"
        },
        {
          "name": "_to",
          "type": "address"
        },
        {
          "name": "_value",
          "type": "uint256"
        }
      ],
      "name": "transferFrom",
      "outputs": [
        {
          "name": "",
          "type": "bool"
        }
      ],
      "payable": false,
      "stateMutability": "nonpayable",
      "type": "function"
    },
    {
      "constant": true,
      "inputs": [],
      "name": "virtualSupply",
      "outputs": [
        {
          "name": "",
          "type": "uint256"
        }
      ],
      "payable": false,
      "stateMutability": "view",
      "type": "function"
    },
    {
      "constant": true,
      "inputs": [
        {
          "name": "_supply",
          "type": "uint256"
        },
        {
          "name": "_connectorBalance",
          "type": "uint256"
        },
        {
          "name": "_connectorWeight",
          "type": "uint32"
        },
        {
          "name": "_depositAmount",
          "type": "uint256"
        }
      ],
      "name": "calculatePurchaseReturn",
      "outputs": [
        {
          "name": "",
          "type": "uint256"
        }
      ],
      "payable": false,
      "stateMutability": "view",
      "type": "function"
    },
    {
      "constant": true,
      "inputs": [
        {
          "name": "_supply",
          "type": "uint256"
        },
        {
          "name": "_connectorBalance",
          "type": "uint256"
        },
        {
          "name": "_connectorWeight",
          "type": "uint32"
        },
        {
          "name": "_sellAmount",
          "type": "uint256"
        }
      ],
      "name": "calculateSaleReturn",
      "outputs": [
        {
          "name": "",
          "type": "uint256"
        }
      ],
      "payable": false,
      "stateMutability": "view",
      "type": "function"
    },
    {
      "constant": true,
      "inputs": [],
      "name": "version",
      "outputs": [
        {
          "name": "",
          "type": "string"
        }
      ],
      "payable": false,
      "stateMutability": "view",
      "type": "function"
    },
    {
      "constant": false,
      "inputs": [
        {
          "name": "_spender",
          "type": "address"
        },
        {
          "name": "_subtractedValue",
          "type": "uint256"
        }
      ],
      "name": "decreaseApproval",
      "outputs": [
        {
          "name": "",
          "type": "bool"
        }
      ],
      "payable": false,
      "stateMutability": "nonpayable",
      "type": "function"
    },
    {
      "constant": true,
      "inputs": [],
      "name": "rewardPool",
      "outputs": [
        {
          "name": "",
          "type": "uint256"
        }
      ],
      "payable": false,
      "stateMutability": "view",
      "type": "function"
    },
    {
      "constant": true,
      "inputs": [],
      "name": "intervalsSinceLastInflationUpdate",
      "outputs": [
        {
          "name": "",
          "type": "uint256"
        }
      ],
      "payable": false,
      "stateMutability": "view",
      "type": "function"
    },
    {
      "constant": true,
      "inputs": [
        {
          "name": "_owner",
          "type": "address"
        }
      ],
      "name": "balanceOf",
      "outputs": [
        {
          "name": "balance",
          "type": "uint256"
        }
      ],
      "payable": false,
      "stateMutability": "view",
      "type": "function"
    },
    {
      "constant": true,
      "inputs": [],
      "name": "owner",
      "outputs": [
        {
          "name": "",
          "type": "address"
        }
      ],
      "payable": false,
      "stateMutability": "view",
      "type": "function"
    },
    {
      "constant": true,
      "inputs": [],
      "name": "timeInterval",
      "outputs": [
        {
          "name": "",
          "type": "uint256"
        }
      ],
      "payable": false,
      "stateMutability": "view",
      "type": "function"
    },
    {
      "constant": true,
      "inputs": [],
      "name": "poolBalance",
      "outputs": [
        {
          "name": "",
          "type": "uint256"
        }
      ],
      "payable": false,
      "stateMutability": "view",
      "type": "function"
    },
    {
      "constant": false,
      "inputs": [],
      "name": "buy",
      "outputs": [
        {
          "name": "",
          "type": "bool"
        }
      ],
      "payable": true,
      "stateMutability": "payable",
      "type": "function"
    },
    {
      "constant": false,
      "inputs": [
        {
          "name": "_to",
          "type": "address"
        },
        {
          "name": "_value",
          "type": "uint256"
        }
      ],
      "name": "transfer",
      "outputs": [
        {
          "name": "",
          "type": "bool"
        }
      ],
      "payable": false,
      "stateMutability": "nonpayable",
      "type": "function"
    },
    {
      "constant": true,
      "inputs": [],
      "name": "inflationRatePerInterval",
      "outputs": [
        {
          "name": "",
          "type": "uint256"
        }
      ],
      "payable": false,
      "stateMutability": "view",
      "type": "function"
    },
    {
      "constant": false,
      "inputs": [
        {
          "name": "_to",
          "type": "address"
        }
      ],
      "name": "mintTokens",
      "outputs": [
        {
          "name": "",
          "type": "bool"
        }
      ],
      "payable": false,
      "stateMutability": "nonpayable",
      "type": "function"
    },
    {
      "constant": false,
      "inputs": [
        {
          "name": "_gasPrice",
          "type": "uint256"
        }
      ],
      "name": "setGasPrice",
      "outputs": [],
      "payable": false,
      "stateMutability": "nonpayable",
      "type": "function"
    },
    {
      "constant": false,
      "inputs": [
        {
          "name": "_spender",
          "type": "address"
        },
        {
          "name": "_addedValue",
          "type": "uint256"
        }
      ],
      "name": "increaseApproval",
      "outputs": [
        {
          "name": "",
          "type": "bool"
        }
      ],
      "payable": false,
      "stateMutability": "nonpayable",
      "type": "function"
    },
    {
      "constant": true,
      "inputs": [],
      "name": "virtualBalance",
      "outputs": [
        {
          "name": "",
          "type": "uint256"
        }
      ],
      "payable": false,
      "stateMutability": "view",
      "type": "function"
    },
    {
      "constant": true,
      "inputs": [
        {
          "name": "_owner",
          "type": "address"
        },
        {
          "name": "_spender",
          "type": "address"
        }
      ],
      "name": "allowance",
      "outputs": [
        {
          "name": "",
          "type": "uint256"
        }
      ],
      "payable": false,
      "stateMutability": "view",
      "type": "function"
    },
    {
      "constant": false,
      "inputs": [
        {
          "name": "sellAmount",
          "type": "uint256"
        }
      ],
      "name": "sell",
      "outputs": [
        {
          "name": "",
          "type": "bool"
        }
      ],
      "payable": false,
      "stateMutability": "nonpayable",
      "type": "function"
    },
    {
      "constant": false,
      "inputs": [
        {
          "name": "newOwner",
          "type": "address"
        }
      ],
      "name": "transferOwnership",
      "outputs": [],
      "payable": false,
      "stateMutability": "nonpayable",
      "type": "function"
    },
    {
      "constant": false,
      "inputs": [
        {
          "name": "_tokenSupply",
          "type": "uint256"
        }
      ],
      "name": "computeInflation",
      "outputs": [
        {
          "name": "",
          "type": "uint256"
        }
      ],
      "payable": false,
      "stateMutability": "nonpayable",
      "type": "function"
    },
    {
      "constant": true,
      "inputs": [],
      "name": "gasPrice",
      "outputs": [
        {
          "name": "",
          "type": "uint256"
        }
      ],
      "payable": false,
      "stateMutability": "view",
      "type": "function"
    },
    {
      "inputs": [
        {
          "name": "_totalSupply",
          "type": "uint256"
        },
        {
          "name": "_poolBalance",
          "type": "uint256"
        },
        {
          "name": "_reserveRatio",
          "type": "uint32"
        },
        {
          "name": "hoursElapsed",
          "type": "uint256"
        }
      ],
      "payable": false,
      "stateMutability": "nonpayable",
      "type": "constructor"
    },
    {
      "payable": true,
      "stateMutability": "payable",
      "type": "fallback"
    },
    {
      "anonymous": false,
      "inputs": [
        {
          "indexed": false,
          "name": "logString",
          "type": "string"
        },
        {
          "indexed": false,
          "name": "value",
          "type": "uint256"
        }
      ],
      "name": "LogInflation",
      "type": "event"
    },
    {
      "anonymous": false,
      "inputs": [
        {
          "indexed": false,
          "name": "amountMinted",
          "type": "uint256"
        },
        {
          "indexed": false,
          "name": "totalCost",
          "type": "uint256"
        }
      ],
      "name": "LogMint",
      "type": "event"
    },
    {
      "anonymous": false,
      "inputs": [
        {
          "indexed": false,
          "name": "amountWithdrawn",
          "type": "uint256"
        },
        {
          "indexed": false,
          "name": "reward",
          "type": "uint256"
        }
      ],
      "name": "LogWithdraw",
      "type": "event"
    },
    {
      "anonymous": false,
      "inputs": [
        {
          "indexed": false,
          "name": "logString",
          "type": "string"
        },
        {
          "indexed": false,
          "name": "value",
          "type": "uint256"
        }
      ],
      "name": "LogBondingCurve",
      "type": "event"
    },
    {
      "anonymous": false,
      "inputs": [
        {
          "indexed": true,
          "name": "previousOwner",
          "type": "address"
        },
        {
          "indexed": true,
          "name": "newOwner",
          "type": "address"
        }
      ],
      "name": "OwnershipTransferred",
      "type": "event"
    },
    {
      "anonymous": false,
      "inputs": [
        {
          "indexed": true,
          "name": "owner",
          "type": "address"
        },
        {
          "indexed": true,
          "name": "spender",
          "type": "address"
        },
        {
          "indexed": false,
          "name": "value",
          "type": "uint256"
        }
      ],
      "name": "Approval",
      "type": "event"
    },
    {
      "anonymous": false,
      "inputs": [
        {
          "indexed": true,
          "name": "from",
          "type": "address"
        },
        {
          "indexed": true,
          "name": "to",
          "type": "address"
        },
        {
          "indexed": false,
          "name": "value",
          "type": "uint256"
        }
      ],
      "name": "Transfer",
      "type": "event"
    }
  ],
  "bytecode": "0x60606040526040805190810160405280600381526020017f302e330000000000000000000000000000000000000000000000000000000000815250600390805190602001906200005192919062001051565b5060006087556000608e5534156200006857600080fd5b6040516080806200395983398101604052808051906020019091908051906020019091908051906020019091908051906020019091905050701c35fedd14ffffffffffffffffffffffff60046020608081101515620000c357fe5b0181905550701b0ce43b323fffffffffffffffffffffff60046021608081101515620000eb57fe5b01819055507019f0028ec1ffffffffffffffffffffffff600460226080811015156200011357fe5b01819055507018ded91f0e7fffffffffffffffffffffff600460236080811015156200013b57fe5b01819055507017d8ec7f0417ffffffffffffffffffffff600460246080811015156200016357fe5b01819055507016ddc6556cdbffffffffffffffffffffff600460256080811015156200018b57fe5b01819055507015ecf52776a1ffffffffffffffffffffff60046026608081101515620001b357fe5b01819055507015060c256cb2ffffffffffffffffffffff60046027608081101515620001db57fe5b0181905550701428a2f98d72ffffffffffffffffffffff600460286080811015156200020357fe5b01819055507013545598e5c23fffffffffffffffffffff600460296080811015156200022b57fe5b0181905550701288c4161ce1dfffffffffffffffffffff6004602a6080811015156200025357fe5b01819055507011c592761c666fffffffffffffffffffff6004602b6080811015156200027b57fe5b018190555070110a688680a757ffffffffffffffffffff6004602c608081101515620002a357fe5b0181905550701056f1b5bedf77ffffffffffffffffffff6004602d608081101515620002cb57fe5b0181905550700faadceceeff8bffffffffffffffffffff6004602e608081101515620002f357fe5b0181905550700f05dc6b27edadffffffffffffffffffff6004602f6080811015156200031b57fe5b0181905550700e67a5a25da4107fffffffffffffffffff600460306080811015156200034357fe5b0181905550700dcff115b14eedffffffffffffffffffff600460316080811015156200036b57fe5b0181905550700d3e7a392431239fffffffffffffffffff600460326080811015156200039357fe5b0181905550700cb2ff529eb71e4fffffffffffffffffff60046033608081101515620003bb57fe5b0181905550700c2d415c3db974afffffffffffffffffff60046034608081101515620003e357fe5b0181905550700bad03e7d883f69bffffffffffffffffff600460356080811015156200040b57fe5b0181905550700b320d03b2c343d5ffffffffffffffffff600460366080811015156200043357fe5b0181905550700abc25204e02828dffffffffffffffffff600460376080811015156200045b57fe5b0181905550700a4b16f74ee4bb207fffffffffffffffff600460386080811015156200048357fe5b01819055507009deaf736ac1f569ffffffffffffffffff60046039608081101515620004ab57fe5b0181905550700976bd9952c7aa957fffffffffffffffff6004603a608081101515620004d357fe5b01819055507009131271922eaa606fffffffffffffffff6004603b608081101515620004fb57fe5b01819055507008b380f3558668c46fffffffffffffffff6004603c6080811015156200052357fe5b0181905550700857ddf0117efa215bffffffffffffffff6004603d6080811015156200054b57fe5b01819055507007ffffffffffffffffffffffffffffffff6004603e6080811015156200057357fe5b01819055507007abbf6f6abb9d087fffffffffffffffff6004603f6080811015156200059b57fe5b018190555070075af62cbac95f7dfa7fffffffffffffff60046040608081101515620005c357fe5b018190555070070d7fb7452e187ac13fffffffffffffff60046041608081101515620005eb57fe5b01819055507006c3390ecc8af379295fffffffffffffff600460426080811015156200061357fe5b018190555070067c00a3b07ffc01fd6fffffffffffffff600460436080811015156200063b57fe5b0181905550700637b647c39cbb9d3d27ffffffffffffff600460446080811015156200066357fe5b01819055507005f63b1fc104dbd39587ffffffffffffff600460456080811015156200068b57fe5b01819055507005b771955b36e12f7235ffffffffffffff60046046608081101515620006b357fe5b018190555070057b3d49dda84556d6f6ffffffffffffff60046047608081101515620006db57fe5b018190555070054183095b2c8ececf30ffffffffffffff600460486080811015156200070357fe5b018190555070050a28be635ca2b888f77fffffffffffff600460496080811015156200072b57fe5b01819055507004d5156639708c9db33c3fffffffffffff6004604a6080811015156200075357fe5b01819055507004a23105873875bd52dfdfffffffffffff6004604b6080811015156200077b57fe5b0181905550700471649d87199aa990756fffffffffffff6004604c608081101515620007a357fe5b01819055507004429a21a029d4c1457cfbffffffffffff6004604d608081101515620007cb57fe5b0181905550700415bc6d6fb7dd71af2cb3ffffffffffff6004604e608081101515620007f357fe5b01819055507003eab73b3bbfe282243ce1ffffffffffff6004604f6080811015156200081b57fe5b01819055507003c1771ac9fb6b4c18e229ffffffffffff600460506080811015156200084357fe5b0181905550700399e96897690418f785257fffffffffff600460516080811015156200086b57fe5b0181905550700373fc456c53bb779bf0ea9fffffffffff600460526080811015156200089357fe5b018190555070034f9e8e490c48e67e6ab8bfffffffffff60046053608081101515620008bb57fe5b018190555070032cbfd4a7adc790560b3337ffffffffff60046054608081101515620008e357fe5b018190555070030b50570f6e5d2acca94613ffffffffff600460556080811015156200090b57fe5b01819055507002eb40f9f620fda6b56c2861ffffffffff600460566080811015156200093357fe5b01819055507002cc8340ecb0d0f520a6af58ffffffffff600460576080811015156200095b57fe5b01819055507002af09481380a0a35cf1ba02ffffffffff600460586080811015156200098357fe5b0181905550700292c5bdd3b92ec810287b1b3fffffffff60046059608081101515620009ab57fe5b0181905550700277abdcdab07d5a77ac6d6b9fffffffff6004605a608081101515620009d357fe5b018190555070025daf6654b1eaa55fd64df5efffffffff6004605b608081101515620009fb57fe5b0181905550700244c49c648baa98192dce88b7ffffffff6004605c60808110151562000a2357fe5b018190555070022ce03cd5619a311b2471268bffffffff6004605d60808110151562000a4b57fe5b0181905550700215f77c045fbe885654a44a0fffffffff6004605e60808110151562000a7357fe5b01819055507001ffffffffffffffffffffffffffffffff6004605f60808110151562000a9b57fe5b01819055507001eaefdbdaaee7421fc4d3ede5ffffffff6004606060808110151562000ac357fe5b01819055507001d6bd8b2eb257df7e8ca57b09bfffffff6004606160808110151562000aeb57fe5b01819055507001c35fedd14b861eb0443f7f133fffffff6004606260808110151562000b1357fe5b01819055507001b0ce43b322bcde4a56e8ada5afffffff6004606360808110151562000b3b57fe5b018190555070019f0028ec1fff007f5a195a39dfffffff6004606460808110151562000b6357fe5b018190555070018ded91f0e72ee74f49b15ba527ffffff6004606560808110151562000b8b57fe5b018190555070017d8ec7f04136f4e5615fd41a63ffffff6004606660808110151562000bb357fe5b018190555070016ddc6556cdb84bdc8d12d22e6fffffff6004606760808110151562000bdb57fe5b018190555070015ecf52776a1155b5bd8395814f7fffff6004606860808110151562000c0357fe5b018190555070015060c256cb23b3b3cc3754cf40ffffff6004606960808110151562000c2b57fe5b01819055507001428a2f98d728ae223ddab715be3fffff6004606a60808110151562000c5357fe5b018190555070013545598e5c23276ccf0ede68034fffff6004606b60808110151562000c7b57fe5b01819055507001288c4161ce1d6f54b7f61081194fffff6004606c60808110151562000ca357fe5b018190555070011c592761c666aa641d5a01a40f17ffff6004606d60808110151562000ccb57fe5b0181905550700110a688680a7530515f3e6e6cfdcdffff6004606e60808110151562000cf357fe5b01819055507001056f1b5bedf75c6bcb2ce8aed428ffff6004606f60808110151562000d1b57fe5b01819055506ffaadceceeff8a0890f3875f008277fff6004607060808110151562000d4257fe5b01819055506ff05dc6b27edad306388a600f6ba0bfff6004607160808110151562000d6957fe5b01819055506fe67a5a25da41063de1495d5b18cdbfff6004607260808110151562000d9057fe5b01819055506fdcff115b14eedde6fc3aa5353f2e4fff6004607360808110151562000db757fe5b01819055506fd3e7a3924312399f9aae2e0f868f8fff6004607460808110151562000dde57fe5b01819055506fcb2ff529eb71e41582cccd5a1ee26fff6004607560808110151562000e0557fe5b01819055506fc2d415c3db974ab32a51840c0b67edff6004607660808110151562000e2c57fe5b01819055506fbad03e7d883f69ad5b0a186184e06bff6004607760808110151562000e5357fe5b01819055506fb320d03b2c343d4829abd6075f0cc5ff6004607860808110151562000e7a57fe5b01819055506fabc25204e02828d73c6e80bcdb1a95bf6004607960808110151562000ea157fe5b01819055506fa4b16f74ee4bb2040a1ec6c15fbbf2df6004607a60808110151562000ec857fe5b01819055506f9deaf736ac1f569deb1b5ae3f36c130f6004607b60808110151562000eef57fe5b01819055506f976bd9952c7aa957f5937d790ef650376004607c60808110151562000f1657fe5b01819055506f9131271922eaa6064b73a22d0bd4f2bf6004607d60808110151562000f3d57fe5b01819055506f8b380f3558668c46c91c49a2f8e967b96004607e60808110151562000f6457fe5b01819055506f857ddf0117efa215952912839f6473e66004607f60808110151562000f8b57fe5b018190555033608460006101000a81548173ffffffffffffffffffffffffffffffffffffffff021916908373ffffffffffffffffffffffffffffffffffffffff160217905550610e1081024203608881905550670de0c098e6d79910608981905550610e10608a8190555081608660006101000a81548163ffffffff021916908363ffffffff160217905550836001819055508260858190555083608b8190555082608c819055506000608d8190555064060db884006087819055505050505062001100565b828054600181600116156101000203166002900490600052602060002090601f016020900481019282601f106200109457805160ff1916838001178555620010c5565b82800160010185558215620010c5579182015b82811115620010c4578251825591602001919060010190620010a7565b5b509050620010d49190620010d8565b5090565b620010fd91905b80821115620010f9576000816000905550600101620010df565b5090565b90565b61284980620011106000396000f30060606040526004361061016a576000357c0100000000000000000000000000000000000000000000000000000000900463ffffffff168063095ea7b3146101755780630ab07e88146101cf5780630c7d5cd8146101f857806318160ddd1461022d57806323b872dd14610256578063277b2f97146102cf57806329a00e7c146102f857806349f9b0f71461035057806354fd4d50146103a8578063661884631461043657806366666aa9146104905780636cc8063e146104b957806370a08231146104e25780638da5cb5b1461052f5780638f5164381461058457806396365d44146105ad578063a6f2ae3a146105d6578063a9059cbb146105f8578063b03f4d4f14610652578063bcfaa79d1461067b578063bf1fe420146106cc578063d73dd623146106ef578063dcd2af1714610749578063dd62ed3e14610772578063e4849b32146107de578063f2fde38b14610819578063fd748c3a14610852578063fe173b9714610889575b6101726108b2565b50005b341561018057600080fd5b6101b5600480803573ffffffffffffffffffffffffffffffffffffffff16906020019091908035906020019091905050610a06565b604051808215151515815260200191505060405180910390f35b34156101da57600080fd5b6101e2610af8565b6040518082815260200191505060405180910390f35b341561020357600080fd5b61020b610afe565b604051808263ffffffff1663ffffffff16815260200191505060405180910390f35b341561023857600080fd5b610240610b14565b6040518082815260200191505060405180910390f35b341561026157600080fd5b6102b5600480803573ffffffffffffffffffffffffffffffffffffffff1690602001909190803573ffffffffffffffffffffffffffffffffffffffff16906020019091908035906020019091905050610b1e565b604051808215151515815260200191505060405180910390f35b34156102da57600080fd5b6102e2610ed8565b6040518082815260200191505060405180910390f35b341561030357600080fd5b61033a600480803590602001909190803590602001909190803563ffffffff16906020019091908035906020019091905050610ede565b6040518082815260200191505060405180910390f35b341561035b57600080fd5b610392600480803590602001909190803590602001909190803563ffffffff16906020019091908035906020019091905050610fbd565b6040518082815260200191505060405180910390f35b34156103b357600080fd5b6103bb6110c1565b6040518080602001828103825283818151815260200191508051906020019080838360005b838110156103fb5780820151818401526020810190506103e0565b50505050905090810190601f1680156104285780820380516001836020036101000a031916815260200191505b509250505060405180910390f35b341561044157600080fd5b610476600480803573ffffffffffffffffffffffffffffffffffffffff1690602001909190803590602001909190505061115f565b604051808215151515815260200191505060405180910390f35b341561049b57600080fd5b6104a36113f0565b6040518082815260200191505060405180910390f35b34156104c457600080fd5b6104cc6113f6565b6040518082815260200191505060405180910390f35b34156104ed57600080fd5b610519600480803573ffffffffffffffffffffffffffffffffffffffff1690602001909190505061141f565b6040518082815260200191505060405180910390f35b341561053a57600080fd5b610542611467565b604051808273ffffffffffffffffffffffffffffffffffffffff1673ffffffffffffffffffffffffffffffffffffffff16815260200191505060405180910390f35b341561058f57600080fd5b61059761148d565b6040518082815260200191505060405180910390f35b34156105b857600080fd5b6105c0611493565b6040518082815260200191505060405180910390f35b6105de6108b2565b604051808215151515815260200191505060405180910390f35b341561060357600080fd5b610638600480803573ffffffffffffffffffffffffffffffffffffffff16906020019091908035906020019091905050611499565b604051808215151515815260200191505060405180910390f35b341561065d57600080fd5b6106656116b8565b6040518082815260200191505060405180910390f35b341561068657600080fd5b6106b2600480803573ffffffffffffffffffffffffffffffffffffffff169060200190919050506116be565b604051808215151515815260200191505060405180910390f35b34156106d757600080fd5b6106ed600480803590602001909190505061180f565b005b34156106fa57600080fd5b61072f600480803573ffffffffffffffffffffffffffffffffffffffff16906020019091908035906020019091905050611884565b604051808215151515815260200191505060405180910390f35b341561075457600080fd5b61075c611a80565b6040518082815260200191505060405180910390f35b341561077d57600080fd5b6107c8600480803573ffffffffffffffffffffffffffffffffffffffff1690602001909190803573ffffffffffffffffffffffffffffffffffffffff16906020019091905050611a86565b6040518082815260200191505060405180910390f35b34156107e957600080fd5b6107ff6004808035906020019091905050611b0d565b604051808215151515815260200191505060405180910390f35b341561082457600080fd5b610850600480803573ffffffffffffffffffffffffffffffffffffffff16906020019091905050611d63565b005b341561085d57600080fd5b6108736004808035906020019091905050611ebb565b6040518082815260200191505060405180910390f35b341561089457600080fd5b61089c612005565b6040518082815260200191505060405180910390f35b6000806087543a111515156108c357fe5b6000341115156108d257600080fd5b6108f4600154608554608660009054906101000a900463ffffffff1634610ede565b905061090b8160015461200b90919063ffffffff16565b600181905550610962816000803373ffffffffffffffffffffffffffffffffffffffff1673ffffffffffffffffffffffffffffffffffffffff1681526020019081526020016000205461200b90919063ffffffff16565b6000803373ffffffffffffffffffffffffffffffffffffffff1673ffffffffffffffffffffffffffffffffffffffff168152602001908152602001600020819055506109b93460855461200b90919063ffffffff16565b6085819055507fe7360c0fa1984a85874443100f5b25dd4f84192659660eb199f6c96e11defbcb8134604051808381526020018281526020019250505060405180910390a1600191505090565b600081600260003373ffffffffffffffffffffffffffffffffffffffff1673ffffffffffffffffffffffffffffffffffffffff16815260200190815260200160002060008573ffffffffffffffffffffffffffffffffffffffff1673ffffffffffffffffffffffffffffffffffffffff168152602001908152602001600020819055508273ffffffffffffffffffffffffffffffffffffffff163373ffffffffffffffffffffffffffffffffffffffff167f8c5be1e5ebec7d5bd14f71427d1e84f3dd0314c0f7b2291e5b200ac8c7c3b925846040518082815260200191505060405180910390a36001905092915050565b608d5481565b608660009054906101000a900463ffffffff1681565b6000600154905090565b60008073ffffffffffffffffffffffffffffffffffffffff168373ffffffffffffffffffffffffffffffffffffffff1614151515610b5b57600080fd5b6000808573ffffffffffffffffffffffffffffffffffffffff1673ffffffffffffffffffffffffffffffffffffffff168152602001908152602001600020548211151515610ba857600080fd5b600260008573ffffffffffffffffffffffffffffffffffffffff1673ffffffffffffffffffffffffffffffffffffffff16815260200190815260200160002060003373ffffffffffffffffffffffffffffffffffffffff1673ffffffffffffffffffffffffffffffffffffffff168152602001908152602001600020548211151515610c3357600080fd5b610c84826000808773ffffffffffffffffffffffffffffffffffffffff1673ffffffffffffffffffffffffffffffffffffffff1681526020019081526020016000205461202990919063ffffffff16565b6000808673ffffffffffffffffffffffffffffffffffffffff1673ffffffffffffffffffffffffffffffffffffffff16815260200190815260200160002081905550610d17826000808673ffffffffffffffffffffffffffffffffffffffff1673ffffffffffffffffffffffffffffffffffffffff1681526020019081526020016000205461200b90919063ffffffff16565b6000808573ffffffffffffffffffffffffffffffffffffffff1673ffffffffffffffffffffffffffffffffffffffff16815260200190815260200160002081905550610de882600260008773ffffffffffffffffffffffffffffffffffffffff1673ffffffffffffffffffffffffffffffffffffffff16815260200190815260200160002060003373ffffffffffffffffffffffffffffffffffffffff1673ffffffffffffffffffffffffffffffffffffffff1681526020019081526020016000205461202990919063ffffffff16565b600260008673ffffffffffffffffffffffffffffffffffffffff1673ffffffffffffffffffffffffffffffffffffffff16815260200190815260200160002060003373ffffffffffffffffffffffffffffffffffffffff1673ffffffffffffffffffffffffffffffffffffffff168152602001908152602001600020819055508273ffffffffffffffffffffffffffffffffffffffff168473ffffffffffffffffffffffffffffffffffffffff167fddf252ad1be2c89b69c2b068fc378daa952ba7f163c4a11628f55a4df523b3ef846040518082815260200191505060405180910390a3600190509392505050565b608b5481565b60008060008060008089118015610ef55750600088115b8015610f07575060008763ffffffff16115b8015610f225750620f424063ffffffff168763ffffffff1611155b1515610f2d57600080fd5b6000861415610f3f5760009450610fb1565b620f424063ffffffff168763ffffffff161415610f725787610f618a88612042565b811515610f6a57fe5b049450610fb1565b610f7c8689612075565b9150610f8d828989620f4240612093565b80945081955050508260ff16610fa38a86612042565b9060020a9004905088810394505b50505050949350505050565b60008060008060008060008a118015610fd65750600089115b8015610fe8575060008863ffffffff16115b80156110035750620f424063ffffffff168863ffffffff1611155b801561100f5750898711155b151561101a57600080fd5b600087141561102c57600095506110b4565b8987141561103c578895506110b4565b620f424063ffffffff168863ffffffff16141561106f578961105e8a89612042565b81151561106757fe5b0495506110b4565b868a0392506110838a84620f42408b612093565b80955081965050506110958986612042565b91508360ff16899060020a029050848183038115156110b057fe5b0495505b5050505050949350505050565b60038054600181600116156101000203166002900480601f0160208091040260200160405190810160405280929190818152602001828054600181600116156101000203166002900480156111575780601f1061112c57610100808354040283529160200191611157565b820191906000526020600020905b81548152906001019060200180831161113a57829003601f168201915b505050505081565b600080600260003373ffffffffffffffffffffffffffffffffffffffff1673ffffffffffffffffffffffffffffffffffffffff16815260200190815260200160002060008573ffffffffffffffffffffffffffffffffffffffff1673ffffffffffffffffffffffffffffffffffffffff16815260200190815260200160002054905080831115611270576000600260003373ffffffffffffffffffffffffffffffffffffffff1673ffffffffffffffffffffffffffffffffffffffff16815260200190815260200160002060008673ffffffffffffffffffffffffffffffffffffffff1673ffffffffffffffffffffffffffffffffffffffff16815260200190815260200160002081905550611304565b611283838261202990919063ffffffff16565b600260003373ffffffffffffffffffffffffffffffffffffffff1673ffffffffffffffffffffffffffffffffffffffff16815260200190815260200160002060008673ffffffffffffffffffffffffffffffffffffffff1673ffffffffffffffffffffffffffffffffffffffff168152602001908152602001600020819055505b8373ffffffffffffffffffffffffffffffffffffffff163373ffffffffffffffffffffffffffffffffffffffff167f8c5be1e5ebec7d5bd14f71427d1e84f3dd0314c0f7b2291e5b200ac8c7c3b925600260003373ffffffffffffffffffffffffffffffffffffffff1673ffffffffffffffffffffffffffffffffffffffff16815260200190815260200160002060008873ffffffffffffffffffffffffffffffffffffffff1673ffffffffffffffffffffffffffffffffffffffff168152602001908152602001600020546040518082815260200191505060405180910390a3600191505092915050565b608e5481565b600080608a5490508060885481151561140b57fe5b04814281151561141757fe5b040391505090565b60008060008373ffffffffffffffffffffffffffffffffffffffff1673ffffffffffffffffffffffffffffffffffffffff168152602001908152602001600020549050919050565b608460009054906101000a900473ffffffffffffffffffffffffffffffffffffffff1681565b608a5481565b60855481565b60008073ffffffffffffffffffffffffffffffffffffffff168373ffffffffffffffffffffffffffffffffffffffff16141515156114d657600080fd5b6000803373ffffffffffffffffffffffffffffffffffffffff1673ffffffffffffffffffffffffffffffffffffffff16815260200190815260200160002054821115151561152357600080fd5b611574826000803373ffffffffffffffffffffffffffffffffffffffff1673ffffffffffffffffffffffffffffffffffffffff1681526020019081526020016000205461202990919063ffffffff16565b6000803373ffffffffffffffffffffffffffffffffffffffff1673ffffffffffffffffffffffffffffffffffffffff16815260200190815260200160002081905550611607826000808673ffffffffffffffffffffffffffffffffffffffff1673ffffffffffffffffffffffffffffffffffffffff1681526020019081526020016000205461200b90919063ffffffff16565b6000808573ffffffffffffffffffffffffffffffffffffffff1673ffffffffffffffffffffffffffffffffffffffff168152602001908152602001600020819055508273ffffffffffffffffffffffffffffffffffffffff163373ffffffffffffffffffffffffffffffffffffffff167fddf252ad1be2c89b69c2b068fc378daa952ba7f163c4a11628f55a4df523b3ef846040518082815260200191505060405180910390a36001905092915050565b60895481565b600080600080608460009054906101000a900473ffffffffffffffffffffffffffffffffffffffff1673ffffffffffffffffffffffffffffffffffffffff163373ffffffffffffffffffffffffffffffffffffffff1614151561172057600080fd5b611737608b5460015461202990919063ffffffff16565b925061174283611ebb565b9150608a54905080814281151561175557fe5b04026088819055507fc5afe0d1e3743306067bb00d0a7c1f30b9ac58f3775a0f12a25f3cfb35c406ce826040518080602001838152602001828103825260098152602001807f6e6577546f6b656e7300000000000000000000000000000000000000000000008152506020019250505060405180910390a16117e282608d5461200b90919063ffffffff16565b608d819055506117fd82608e5461200b90919063ffffffff16565b608e8190555060019350505050919050565b608460009054906101000a900473ffffffffffffffffffffffffffffffffffffffff1673ffffffffffffffffffffffffffffffffffffffff163373ffffffffffffffffffffffffffffffffffffffff1614151561186b57600080fd5b60008111151561187a57600080fd5b8060878190555050565b600061191582600260003373ffffffffffffffffffffffffffffffffffffffff1673ffffffffffffffffffffffffffffffffffffffff16815260200190815260200160002060008673ffffffffffffffffffffffffffffffffffffffff1673ffffffffffffffffffffffffffffffffffffffff1681526020019081526020016000205461200b90919063ffffffff16565b600260003373ffffffffffffffffffffffffffffffffffffffff1673ffffffffffffffffffffffffffffffffffffffff16815260200190815260200160002060008573ffffffffffffffffffffffffffffffffffffffff1673ffffffffffffffffffffffffffffffffffffffff168152602001908152602001600020819055508273ffffffffffffffffffffffffffffffffffffffff163373ffffffffffffffffffffffffffffffffffffffff167f8c5be1e5ebec7d5bd14f71427d1e84f3dd0314c0f7b2291e5b200ac8c7c3b925600260003373ffffffffffffffffffffffffffffffffffffffff1673ffffffffffffffffffffffffffffffffffffffff16815260200190815260200160002060008773ffffffffffffffffffffffffffffffffffffffff1673ffffffffffffffffffffffffffffffffffffffff168152602001908152602001600020546040518082815260200191505060405180910390a36001905092915050565b608c5481565b6000600260008473ffffffffffffffffffffffffffffffffffffffff1673ffffffffffffffffffffffffffffffffffffffff16815260200190815260200160002060008373ffffffffffffffffffffffffffffffffffffffff1673ffffffffffffffffffffffffffffffffffffffff16815260200190815260200160002054905092915050565b60008060008060006087543a11151515611b2357fe5b600086118015611b715750856000803373ffffffffffffffffffffffffffffffffffffffff1673ffffffffffffffffffffffffffffffffffffffff1681526020019081526020016000205410155b1515611b7c57600080fd5b6001549350611b96608c548561202990919063ffffffff16565b8611151515611ba457600080fd5b608d54840184608660009054906101000a900463ffffffff1663ffffffff1602811515611bcd57fe5b049250608660009054906101000a900463ffffffff1663ffffffff168363ffffffff1660855402811515611bfd57fe5b049150611c0c84838589610fbd565b90503373ffffffffffffffffffffffffffffffffffffffff166108fc829081150290604051600060405180830381858888f193505050501515611c4e57600080fd5b611c638160855461202990919063ffffffff16565b608581905550611cba866000803373ffffffffffffffffffffffffffffffffffffffff1673ffffffffffffffffffffffffffffffffffffffff1681526020019081526020016000205461202990919063ffffffff16565b6000803373ffffffffffffffffffffffffffffffffffffffff1673ffffffffffffffffffffffffffffffffffffffff16815260200190815260200160002081905550611d118660015461202990919063ffffffff16565b6001819055507f210405eb88ac7589aa9de0a6e36b9c9d3cd6e4061b74363d250a77afe3c6efb78682604051808381526020018281526020019250505060405180910390a16001945050505050919050565b608460009054906101000a900473ffffffffffffffffffffffffffffffffffffffff1673ffffffffffffffffffffffffffffffffffffffff163373ffffffffffffffffffffffffffffffffffffffff16141515611dbf57600080fd5b600073ffffffffffffffffffffffffffffffffffffffff168173ffffffffffffffffffffffffffffffffffffffff1614151515611dfb57600080fd5b8073ffffffffffffffffffffffffffffffffffffffff16608460009054906101000a900473ffffffffffffffffffffffffffffffffffffffff1673ffffffffffffffffffffffffffffffffffffffff167f8be0079c531659141344cd1fd0a4f28419497f9722a3daafe3b4186f6b6457e060405160405180910390a380608460006101000a81548173ffffffffffffffffffffffffffffffffffffffff021916908373ffffffffffffffffffffffffffffffffffffffff16021790555050565b6000806000806000806000806089549650608a54955042945085608854811515611ee157fe5b048686811515611eed57fe5b04039350600084111515611f0057600080fd5b869250600191505b83821015611f4557670de0b6b3a7640000611f2c88856120f090919063ffffffff16565b811515611f3557fe5b0492508180600101925050611f08565b7fc5afe0d1e3743306067bb00d0a7c1f30b9ac58f3775a0f12a25f3cfb35c406ce836040518080602001838152602001828103825260048152602001807f72617465000000000000000000000000000000000000000000000000000000008152506020019250505060405180910390a1889050611ff781611fe9670de0b6b3a7640000611fdb878e6120f090919063ffffffff16565b61212b90919063ffffffff16565b61202990919063ffffffff16565b975050505050505050919050565b60875481565b600080828401905083811015151561201f57fe5b8091505092915050565b600082821115151561203757fe5b818303905092915050565b60008082840290506000841480612063575082848281151561206057fe5b04145b151561206b57fe5b8091505092915050565b600080828401905083811015151561208957fe5b8091505092915050565b6000806000808463ffffffff168663ffffffff166120b18a8a612146565b028115156120bb57fe5b0491506120c7826122ad565b90506120e081607f0360ff16839060020a90048261236d565b8193509350505094509492505050565b60008060008414156121055760009150612124565b828402905082848281151561211657fe5b0414151561212057fe5b8091505b5092915050565b600080828481151561213957fe5b0490508091505092915050565b60008060008060007001ffffffffffffffffffffffffffffffff871115151561216b57fe5b60009350856f80000000000000000000000000000000880281151561218c57fe5b049250700100000000000000000000000000000000831015156121f5576121cd6f80000000000000000000000000000000848115156121c757fe5b04612791565b91508160ff16839060020a900492506f800000000000000000000000000000008260ff160293505b6f8000000000000000000000000000000083111561228357607f90505b60008160ff161115612282576f8000000000000000000000000000000083840281151561223b57fe5b04925070010000000000000000000000000000000083101515612276576001839060020a900492506001810360ff1660019060020a02840193505b80600190039050612212565b5b607a60ff166f02c5c85fdf473de6af278ece600fcbda85029060020a900494505050505092915050565b60008060008060209250607f91505b8160ff166001840160ff16101561230e57600282840160ff168115156122de57fe5b0490508460048260ff166080811015156122f457fe5b015410151561230557809250612309565b8091505b6122bc565b8460048360ff1660808110151561232157fe5b015410151561233257819350612365565b8460048460ff1660808110151561234557fe5b015410151561235657829350612365565b6000151561236057fe5b600093505b505050919050565b6000806000849150600090508360ff168583029060020a900491506f03442c4e6074a82f1797f72ac00000008202810190508360ff168583029060020a900491506f0116b96f757c380fb287fd0e400000008202810190508360ff168583029060020a900491506e45ae5bdd5f0e03eca1ff43900000008202810190508360ff168583029060020a900491506e0defabf91302cd95b9ffda500000008202810190508360ff168583029060020a900491506e02529ca9832b22439efff9b80000008202810190508360ff168583029060020a900491506d54f1cf12bd04e516b6da880000008202810190508360ff168583029060020a900491506d0a9e39e257a09ca2d6db510000008202810190508360ff168583029060020a900491506d012e066e7b839fa050c3090000008202810190508360ff168583029060020a900491506c1e33d7d926c329a1ad1a8000008202810190508360ff168583029060020a900491506c02bee513bdb4a6b19b5f8000008202810190508360ff168583029060020a900491506b3a9316fa79b88eccf2a000008202810190508360ff168583029060020a900491506b048177ebe1fa8123752000008202810190508360ff168583029060020a900491506a5263fe90242dcbacf000008202810190508360ff168583029060020a900491506a057e22099c030d941000008202810190508360ff168583029060020a900491506957e22099c030d94100008202810190508360ff168583029060020a9004915069052b6b545699763100008202810190508360ff168583029060020a90049150684985f67696bf7480008202810190508360ff168583029060020a900491506803dea12ea99e4980008202810190508360ff168583029060020a900491506731880f2214b6e0008202810190508360ff168583029060020a9004915067025bcff56eb360008202810190508360ff168583029060020a90049150661b722e10ab10008202810190508360ff168583029060020a900491506601317c700770008202810190508360ff168583029060020a90049150650cba84aafa008202810190508360ff168583029060020a900491506482573a0a008202810190508360ff168583029060020a900491506405035ad9008202810190508360ff168583029060020a90049150632f881b008202810190508360ff168583029060020a900491506301b293408202810190508360ff168583029060020a90049150620efc408202810190508360ff168583029060020a90049150617fe08202810190508360ff168583029060020a900491506104208202810190508360ff168583029060020a9004915060218202810190508360ff168583029060020a9004915060018202810190508360ff1660019060020a02856f0688589cc0e9505e2f2fee55800000008381151561278457fe5b0401019250505092915050565b60008060008091506101008410156127c8575b60018411156127c3576001849060020a900493506001820191506127a4565b612813565b608090505b60008160ff161115612812578060ff1660019060020a02841015156127ff578060ff16849060020a9004935080821791505b60018160ff169060020a900490506127cd565b5b81925050509190505600a165627a7a72305820da9015a512dd86d0edf3575347935b9fb7b18d058d2b0d663659a82dd642dbfa0029",
  "source": "pragma solidity ^0.4.18;\n\nimport \"../RelevantBondingCurve.sol\";\n\ncontract RelevantBondingCurveMock is RelevantBondingCurve {\n  function RelevantBondingCurveMock(\n    uint256 _totalSupply,\n    uint256 _poolBalance,\n    uint32 _reserveRatio,\n    uint256 hoursElapsed) public {\n\n    lastInflationCalc = now - hoursElapsed * 1 hours;\n    inflationRatePerInterval = 1000010880216701200;\n    timeInterval = 1 hours;\n\n    reserveRatio = _reserveRatio;\n    totalSupply_ = _totalSupply;\n    poolBalance = _poolBalance;\n\n    virtualSupply = _totalSupply;\n    virtualBalance = _poolBalance;\n    inflationSupply = 0;\n\n    gasPrice = 26 * (10 ** 9);\n  }\n}",
  "sourcePath": "/Users/billy/react/bonding-token-ui/src/relevant-contracts/contracts/mocks/RelevantBondingCurveMock.sol",
  "compiler": {
    "name": "solc",
    "version": "0.4.19+commit.c4cbbb05.Emscripten.clang"
  },
  "schemaVersion": "1.0.1",
  "updatedAt": "2018-02-18T02:56:24.963Z"
}