{
  "contractName": "RelevantCoin",
  "abi": [
    {
      "constant": true,
      "inputs": [],
      "name": "name",
      "outputs": [
        {
          "name": "",
          "type": "string"
        }
      ],
      "payable": false,
      "stateMutability": "view",
      "type": "function"
    },
    {
      "constant": false,
      "inputs": [
        {
          "name": "_spender",
          "type": "address"
        },
        {
          "name": "_value",
          "type": "uint256"
        }
      ],
      "name": "approve",
      "outputs": [
        {
          "name": "",
          "type": "bool"
        }
      ],
      "payable": false,
      "stateMutability": "nonpayable",
      "type": "function"
    },
    {
      "constant": true,
      "inputs": [],
      "name": "inflationSupply",
      "outputs": [
        {
          "name": "",
          "type": "uint256"
        }
      ],
      "payable": false,
      "stateMutability": "view",
      "type": "function"
    },
    {
      "constant": true,
      "inputs": [],
      "name": "reserveRatio",
      "outputs": [
        {
          "name": "",
          "type": "uint32"
        }
      ],
      "payable": false,
      "stateMutability": "view",
      "type": "function"
    },
    {
      "constant": true,
      "inputs": [],
      "name": "totalSupply",
      "outputs": [
        {
          "name": "",
          "type": "uint256"
        }
      ],
      "payable": false,
      "stateMutability": "view",
      "type": "function"
    },
    {
      "constant": false,
      "inputs": [
        {
          "name": "_from",
          "type": "address"
        },
        {
          "name": "_to",
          "type": "address"
        },
        {
          "name": "_value",
          "type": "uint256"
        }
      ],
      "name": "transferFrom",
      "outputs": [
        {
          "name": "",
          "type": "bool"
        }
      ],
      "payable": false,
      "stateMutability": "nonpayable",
      "type": "function"
    },
    {
      "constant": true,
      "inputs": [],
      "name": "INITAL_BALANCE",
      "outputs": [
        {
          "name": "",
          "type": "uint256"
        }
      ],
      "payable": false,
      "stateMutability": "view",
      "type": "function"
    },
    {
      "constant": true,
      "inputs": [],
      "name": "virtualSupply",
      "outputs": [
        {
          "name": "",
          "type": "uint256"
        }
      ],
      "payable": false,
      "stateMutability": "view",
      "type": "function"
    },
    {
      "constant": true,
      "inputs": [
        {
          "name": "_supply",
          "type": "uint256"
        },
        {
          "name": "_connectorBalance",
          "type": "uint256"
        },
        {
          "name": "_connectorWeight",
          "type": "uint32"
        },
        {
          "name": "_depositAmount",
          "type": "uint256"
        }
      ],
      "name": "calculatePurchaseReturn",
      "outputs": [
        {
          "name": "",
          "type": "uint256"
        }
      ],
      "payable": false,
      "stateMutability": "view",
      "type": "function"
    },
    {
      "constant": true,
      "inputs": [],
      "name": "INITIAL_SUPPLY",
      "outputs": [
        {
          "name": "",
          "type": "uint256"
        }
      ],
      "payable": false,
      "stateMutability": "view",
      "type": "function"
    },
    {
      "constant": true,
      "inputs": [],
      "name": "decimals",
      "outputs": [
        {
          "name": "",
          "type": "uint8"
        }
      ],
      "payable": false,
      "stateMutability": "view",
      "type": "function"
    },
    {
      "constant": true,
      "inputs": [
        {
          "name": "_supply",
          "type": "uint256"
        },
        {
          "name": "_connectorBalance",
          "type": "uint256"
        },
        {
          "name": "_connectorWeight",
          "type": "uint32"
        },
        {
          "name": "_sellAmount",
          "type": "uint256"
        }
      ],
      "name": "calculateSaleReturn",
      "outputs": [
        {
          "name": "",
          "type": "uint256"
        }
      ],
      "payable": false,
      "stateMutability": "view",
      "type": "function"
    },
    {
      "constant": true,
      "inputs": [],
      "name": "version",
      "outputs": [
        {
          "name": "",
          "type": "string"
        }
      ],
      "payable": false,
      "stateMutability": "view",
      "type": "function"
    },
    {
      "constant": false,
      "inputs": [
        {
          "name": "_spender",
          "type": "address"
        },
        {
          "name": "_subtractedValue",
          "type": "uint256"
        }
      ],
      "name": "decreaseApproval",
      "outputs": [
        {
          "name": "",
          "type": "bool"
        }
      ],
      "payable": false,
      "stateMutability": "nonpayable",
      "type": "function"
    },
    {
      "constant": true,
      "inputs": [],
      "name": "rewardPool",
      "outputs": [
        {
          "name": "",
          "type": "uint256"
        }
      ],
      "payable": false,
      "stateMutability": "view",
      "type": "function"
    },
    {
      "constant": true,
      "inputs": [],
      "name": "intervalsSinceLastInflationUpdate",
      "outputs": [
        {
          "name": "",
          "type": "uint256"
        }
      ],
      "payable": false,
      "stateMutability": "view",
      "type": "function"
    },
    {
      "constant": true,
      "inputs": [
        {
          "name": "_owner",
          "type": "address"
        }
      ],
      "name": "balanceOf",
      "outputs": [
        {
          "name": "balance",
          "type": "uint256"
        }
      ],
      "payable": false,
      "stateMutability": "view",
      "type": "function"
    },
    {
      "constant": true,
      "inputs": [],
      "name": "INITIAL_PRICE",
      "outputs": [
        {
          "name": "",
          "type": "uint256"
        }
      ],
      "payable": false,
      "stateMutability": "view",
      "type": "function"
    },
    {
      "constant": true,
      "inputs": [],
      "name": "owner",
      "outputs": [
        {
          "name": "",
          "type": "address"
        }
      ],
      "payable": false,
      "stateMutability": "view",
      "type": "function"
    },
    {
      "constant": true,
      "inputs": [],
      "name": "timeInterval",
      "outputs": [
        {
          "name": "",
          "type": "uint256"
        }
      ],
      "payable": false,
      "stateMutability": "view",
      "type": "function"
    },
    {
      "constant": true,
      "inputs": [],
      "name": "symbol",
      "outputs": [
        {
          "name": "",
          "type": "string"
        }
      ],
      "payable": false,
      "stateMutability": "view",
      "type": "function"
    },
    {
      "constant": true,
      "inputs": [],
      "name": "poolBalance",
      "outputs": [
        {
          "name": "",
          "type": "uint256"
        }
      ],
      "payable": false,
      "stateMutability": "view",
      "type": "function"
    },
    {
      "constant": false,
      "inputs": [],
      "name": "buy",
      "outputs": [
        {
          "name": "",
          "type": "bool"
        }
      ],
      "payable": true,
      "stateMutability": "payable",
      "type": "function"
    },
    {
      "constant": false,
      "inputs": [
        {
          "name": "_to",
          "type": "address"
        },
        {
          "name": "_value",
          "type": "uint256"
        }
      ],
      "name": "transfer",
      "outputs": [
        {
          "name": "",
          "type": "bool"
        }
      ],
      "payable": false,
      "stateMutability": "nonpayable",
      "type": "function"
    },
    {
      "constant": true,
      "inputs": [],
      "name": "HOURLY_INFLATION",
      "outputs": [
        {
          "name": "",
          "type": "uint256"
        }
      ],
      "payable": false,
      "stateMutability": "view",
      "type": "function"
    },
    {
      "constant": true,
      "inputs": [],
      "name": "inflationRatePerInterval",
      "outputs": [
        {
          "name": "",
          "type": "uint256"
        }
      ],
      "payable": false,
      "stateMutability": "view",
      "type": "function"
    },
    {
      "constant": true,
      "inputs": [],
      "name": "CURVE_RATIO",
      "outputs": [
        {
          "name": "",
          "type": "uint32"
        }
      ],
      "payable": false,
      "stateMutability": "view",
      "type": "function"
    },
    {
      "constant": false,
      "inputs": [
        {
          "name": "_to",
          "type": "address"
        }
      ],
      "name": "mintTokens",
      "outputs": [
        {
          "name": "",
          "type": "bool"
        }
      ],
      "payable": false,
      "stateMutability": "nonpayable",
      "type": "function"
    },
    {
      "constant": false,
      "inputs": [
        {
          "name": "_gasPrice",
          "type": "uint256"
        }
      ],
      "name": "setGasPrice",
      "outputs": [],
      "payable": false,
      "stateMutability": "nonpayable",
      "type": "function"
    },
    {
      "constant": false,
      "inputs": [
        {
          "name": "_spender",
          "type": "address"
        },
        {
          "name": "_addedValue",
          "type": "uint256"
        }
      ],
      "name": "increaseApproval",
      "outputs": [
        {
          "name": "",
          "type": "bool"
        }
      ],
      "payable": false,
      "stateMutability": "nonpayable",
      "type": "function"
    },
    {
      "constant": true,
      "inputs": [],
      "name": "virtualBalance",
      "outputs": [
        {
          "name": "",
          "type": "uint256"
        }
      ],
      "payable": false,
      "stateMutability": "view",
      "type": "function"
    },
    {
      "constant": true,
      "inputs": [
        {
          "name": "_owner",
          "type": "address"
        },
        {
          "name": "_spender",
          "type": "address"
        }
      ],
      "name": "allowance",
      "outputs": [
        {
          "name": "",
          "type": "uint256"
        }
      ],
      "payable": false,
      "stateMutability": "view",
      "type": "function"
    },
    {
      "constant": false,
      "inputs": [
        {
          "name": "sellAmount",
          "type": "uint256"
        }
      ],
      "name": "sell",
      "outputs": [
        {
          "name": "",
          "type": "bool"
        }
      ],
      "payable": false,
      "stateMutability": "nonpayable",
      "type": "function"
    },
    {
      "constant": true,
      "inputs": [],
      "name": "TIME_INTERVAL",
      "outputs": [
        {
          "name": "",
          "type": "uint256"
        }
      ],
      "payable": false,
      "stateMutability": "view",
      "type": "function"
    },
    {
      "constant": false,
      "inputs": [
        {
          "name": "newOwner",
          "type": "address"
        }
      ],
      "name": "transferOwnership",
      "outputs": [],
      "payable": false,
      "stateMutability": "nonpayable",
      "type": "function"
    },
    {
      "constant": false,
      "inputs": [
        {
          "name": "_tokenSupply",
          "type": "uint256"
        }
      ],
      "name": "computeInflation",
      "outputs": [
        {
          "name": "",
          "type": "uint256"
        }
      ],
      "payable": false,
      "stateMutability": "nonpayable",
      "type": "function"
    },
    {
      "constant": true,
      "inputs": [],
      "name": "gasPrice",
      "outputs": [
        {
          "name": "",
          "type": "uint256"
        }
      ],
      "payable": false,
      "stateMutability": "view",
      "type": "function"
    },
    {
      "inputs": [],
      "payable": false,
      "stateMutability": "nonpayable",
      "type": "constructor"
    },
    {
      "payable": true,
      "stateMutability": "payable",
      "type": "fallback"
    },
    {
      "anonymous": false,
      "inputs": [
        {
          "indexed": false,
          "name": "logString",
          "type": "string"
        },
        {
          "indexed": false,
          "name": "value",
          "type": "uint256"
        }
      ],
      "name": "Log",
      "type": "event"
    },
    {
      "anonymous": false,
      "inputs": [
        {
          "indexed": false,
          "name": "logString",
          "type": "string"
        },
        {
          "indexed": false,
          "name": "value",
          "type": "uint256"
        }
      ],
      "name": "LogInflation",
      "type": "event"
    },
    {
      "anonymous": false,
      "inputs": [
        {
          "indexed": false,
          "name": "amountMinted",
          "type": "uint256"
        },
        {
          "indexed": false,
          "name": "totalCost",
          "type": "uint256"
        }
      ],
      "name": "LogMint",
      "type": "event"
    },
    {
      "anonymous": false,
      "inputs": [
        {
          "indexed": false,
          "name": "amountWithdrawn",
          "type": "uint256"
        },
        {
          "indexed": false,
          "name": "reward",
          "type": "uint256"
        }
      ],
      "name": "LogWithdraw",
      "type": "event"
    },
    {
      "anonymous": false,
      "inputs": [
        {
          "indexed": false,
          "name": "logString",
          "type": "string"
        },
        {
          "indexed": false,
          "name": "value",
          "type": "uint256"
        }
      ],
      "name": "LogBondingCurve",
      "type": "event"
    },
    {
      "anonymous": false,
      "inputs": [
        {
          "indexed": true,
          "name": "previousOwner",
          "type": "address"
        },
        {
          "indexed": true,
          "name": "newOwner",
          "type": "address"
        }
      ],
      "name": "OwnershipTransferred",
      "type": "event"
    },
    {
      "anonymous": false,
      "inputs": [
        {
          "indexed": true,
          "name": "owner",
          "type": "address"
        },
        {
          "indexed": true,
          "name": "spender",
          "type": "address"
        },
        {
          "indexed": false,
          "name": "value",
          "type": "uint256"
        }
      ],
      "name": "Approval",
      "type": "event"
    },
    {
      "anonymous": false,
      "inputs": [
        {
          "indexed": true,
          "name": "from",
          "type": "address"
        },
        {
          "indexed": true,
          "name": "to",
          "type": "address"
        },
        {
          "indexed": false,
          "name": "value",
          "type": "uint256"
        }
      ],
      "name": "Transfer",
      "type": "event"
    },
    {
      "constant": true,
      "inputs": [
        {
          "name": "addr",
          "type": "address"
        }
      ],
      "name": "getBalanceInEth",
      "outputs": [
        {
          "name": "",
          "type": "uint256"
        }
      ],
      "payable": false,
      "stateMutability": "view",
      "type": "function"
    }
  ],
  "bytecode": "0x60606040526040805190810160405280600381526020017f302e3300000000000000000000000000000000000000000000000000000000008152506003908051906020019062000051929190620010e0565b5060006087556000608e5534156200006857600080fd5b701c35fedd14ffffffffffffffffffffffff600460206080811015156200008b57fe5b0181905550701b0ce43b323fffffffffffffffffffffff60046021608081101515620000b357fe5b01819055507019f0028ec1ffffffffffffffffffffffff60046022608081101515620000db57fe5b01819055507018ded91f0e7fffffffffffffffffffffff600460236080811015156200010357fe5b01819055507017d8ec7f0417ffffffffffffffffffffff600460246080811015156200012b57fe5b01819055507016ddc6556cdbffffffffffffffffffffff600460256080811015156200015357fe5b01819055507015ecf52776a1ffffffffffffffffffffff600460266080811015156200017b57fe5b01819055507015060c256cb2ffffffffffffffffffffff60046027608081101515620001a357fe5b0181905550701428a2f98d72ffffffffffffffffffffff60046028608081101515620001cb57fe5b01819055507013545598e5c23fffffffffffffffffffff60046029608081101515620001f357fe5b0181905550701288c4161ce1dfffffffffffffffffffff6004602a6080811015156200021b57fe5b01819055507011c592761c666fffffffffffffffffffff6004602b6080811015156200024357fe5b018190555070110a688680a757ffffffffffffffffffff6004602c6080811015156200026b57fe5b0181905550701056f1b5bedf77ffffffffffffffffffff6004602d6080811015156200029357fe5b0181905550700faadceceeff8bffffffffffffffffffff6004602e608081101515620002bb57fe5b0181905550700f05dc6b27edadffffffffffffffffffff6004602f608081101515620002e357fe5b0181905550700e67a5a25da4107fffffffffffffffffff600460306080811015156200030b57fe5b0181905550700dcff115b14eedffffffffffffffffffff600460316080811015156200033357fe5b0181905550700d3e7a392431239fffffffffffffffffff600460326080811015156200035b57fe5b0181905550700cb2ff529eb71e4fffffffffffffffffff600460336080811015156200038357fe5b0181905550700c2d415c3db974afffffffffffffffffff60046034608081101515620003ab57fe5b0181905550700bad03e7d883f69bffffffffffffffffff60046035608081101515620003d357fe5b0181905550700b320d03b2c343d5ffffffffffffffffff60046036608081101515620003fb57fe5b0181905550700abc25204e02828dffffffffffffffffff600460376080811015156200042357fe5b0181905550700a4b16f74ee4bb207fffffffffffffffff600460386080811015156200044b57fe5b01819055507009deaf736ac1f569ffffffffffffffffff600460396080811015156200047357fe5b0181905550700976bd9952c7aa957fffffffffffffffff6004603a6080811015156200049b57fe5b01819055507009131271922eaa606fffffffffffffffff6004603b608081101515620004c357fe5b01819055507008b380f3558668c46fffffffffffffffff6004603c608081101515620004eb57fe5b0181905550700857ddf0117efa215bffffffffffffffff6004603d6080811015156200051357fe5b01819055507007ffffffffffffffffffffffffffffffff6004603e6080811015156200053b57fe5b01819055507007abbf6f6abb9d087fffffffffffffffff6004603f6080811015156200056357fe5b018190555070075af62cbac95f7dfa7fffffffffffffff600460406080811015156200058b57fe5b018190555070070d7fb7452e187ac13fffffffffffffff60046041608081101515620005b357fe5b01819055507006c3390ecc8af379295fffffffffffffff60046042608081101515620005db57fe5b018190555070067c00a3b07ffc01fd6fffffffffffffff600460436080811015156200060357fe5b0181905550700637b647c39cbb9d3d27ffffffffffffff600460446080811015156200062b57fe5b01819055507005f63b1fc104dbd39587ffffffffffffff600460456080811015156200065357fe5b01819055507005b771955b36e12f7235ffffffffffffff600460466080811015156200067b57fe5b018190555070057b3d49dda84556d6f6ffffffffffffff60046047608081101515620006a357fe5b018190555070054183095b2c8ececf30ffffffffffffff60046048608081101515620006cb57fe5b018190555070050a28be635ca2b888f77fffffffffffff60046049608081101515620006f357fe5b01819055507004d5156639708c9db33c3fffffffffffff6004604a6080811015156200071b57fe5b01819055507004a23105873875bd52dfdfffffffffffff6004604b6080811015156200074357fe5b0181905550700471649d87199aa990756fffffffffffff6004604c6080811015156200076b57fe5b01819055507004429a21a029d4c1457cfbffffffffffff6004604d6080811015156200079357fe5b0181905550700415bc6d6fb7dd71af2cb3ffffffffffff6004604e608081101515620007bb57fe5b01819055507003eab73b3bbfe282243ce1ffffffffffff6004604f608081101515620007e357fe5b01819055507003c1771ac9fb6b4c18e229ffffffffffff600460506080811015156200080b57fe5b0181905550700399e96897690418f785257fffffffffff600460516080811015156200083357fe5b0181905550700373fc456c53bb779bf0ea9fffffffffff600460526080811015156200085b57fe5b018190555070034f9e8e490c48e67e6ab8bfffffffffff600460536080811015156200088357fe5b018190555070032cbfd4a7adc790560b3337ffffffffff60046054608081101515620008ab57fe5b018190555070030b50570f6e5d2acca94613ffffffffff60046055608081101515620008d357fe5b01819055507002eb40f9f620fda6b56c2861ffffffffff60046056608081101515620008fb57fe5b01819055507002cc8340ecb0d0f520a6af58ffffffffff600460576080811015156200092357fe5b01819055507002af09481380a0a35cf1ba02ffffffffff600460586080811015156200094b57fe5b0181905550700292c5bdd3b92ec810287b1b3fffffffff600460596080811015156200097357fe5b0181905550700277abdcdab07d5a77ac6d6b9fffffffff6004605a6080811015156200099b57fe5b018190555070025daf6654b1eaa55fd64df5efffffffff6004605b608081101515620009c357fe5b0181905550700244c49c648baa98192dce88b7ffffffff6004605c608081101515620009eb57fe5b018190555070022ce03cd5619a311b2471268bffffffff6004605d60808110151562000a1357fe5b0181905550700215f77c045fbe885654a44a0fffffffff6004605e60808110151562000a3b57fe5b01819055507001ffffffffffffffffffffffffffffffff6004605f60808110151562000a6357fe5b01819055507001eaefdbdaaee7421fc4d3ede5ffffffff6004606060808110151562000a8b57fe5b01819055507001d6bd8b2eb257df7e8ca57b09bfffffff6004606160808110151562000ab357fe5b01819055507001c35fedd14b861eb0443f7f133fffffff6004606260808110151562000adb57fe5b01819055507001b0ce43b322bcde4a56e8ada5afffffff6004606360808110151562000b0357fe5b018190555070019f0028ec1fff007f5a195a39dfffffff6004606460808110151562000b2b57fe5b018190555070018ded91f0e72ee74f49b15ba527ffffff6004606560808110151562000b5357fe5b018190555070017d8ec7f04136f4e5615fd41a63ffffff6004606660808110151562000b7b57fe5b018190555070016ddc6556cdb84bdc8d12d22e6fffffff6004606760808110151562000ba357fe5b018190555070015ecf52776a1155b5bd8395814f7fffff6004606860808110151562000bcb57fe5b018190555070015060c256cb23b3b3cc3754cf40ffffff6004606960808110151562000bf357fe5b01819055507001428a2f98d728ae223ddab715be3fffff6004606a60808110151562000c1b57fe5b018190555070013545598e5c23276ccf0ede68034fffff6004606b60808110151562000c4357fe5b01819055507001288c4161ce1d6f54b7f61081194fffff6004606c60808110151562000c6b57fe5b018190555070011c592761c666aa641d5a01a40f17ffff6004606d60808110151562000c9357fe5b0181905550700110a688680a7530515f3e6e6cfdcdffff6004606e60808110151562000cbb57fe5b01819055507001056f1b5bedf75c6bcb2ce8aed428ffff6004606f60808110151562000ce357fe5b01819055506ffaadceceeff8a0890f3875f008277fff6004607060808110151562000d0a57fe5b01819055506ff05dc6b27edad306388a600f6ba0bfff6004607160808110151562000d3157fe5b01819055506fe67a5a25da41063de1495d5b18cdbfff6004607260808110151562000d5857fe5b01819055506fdcff115b14eedde6fc3aa5353f2e4fff6004607360808110151562000d7f57fe5b01819055506fd3e7a3924312399f9aae2e0f868f8fff6004607460808110151562000da657fe5b01819055506fcb2ff529eb71e41582cccd5a1ee26fff6004607560808110151562000dcd57fe5b01819055506fc2d415c3db974ab32a51840c0b67edff6004607660808110151562000df457fe5b01819055506fbad03e7d883f69ad5b0a186184e06bff6004607760808110151562000e1b57fe5b01819055506fb320d03b2c343d4829abd6075f0cc5ff6004607860808110151562000e4257fe5b01819055506fabc25204e02828d73c6e80bcdb1a95bf6004607960808110151562000e6957fe5b01819055506fa4b16f74ee4bb2040a1ec6c15fbbf2df6004607a60808110151562000e9057fe5b01819055506f9deaf736ac1f569deb1b5ae3f36c130f6004607b60808110151562000eb757fe5b01819055506f976bd9952c7aa957f5937d790ef650376004607c60808110151562000ede57fe5b01819055506f9131271922eaa6064b73a22d0bd4f2bf6004607d60808110151562000f0557fe5b01819055506f8b380f3558668c46c91c49a2f8e967b96004607e60808110151562000f2c57fe5b01819055506f857ddf0117efa215952912839f6473e66004607f60808110151562000f5357fe5b018190555033608460006101000a81548173ffffffffffffffffffffffffffffffffffffffff021916908373ffffffffffffffffffffffffffffffffffffffff16021790555033608460006101000a81548173ffffffffffffffffffffffffffffffffffffffff021916908373ffffffffffffffffffffffffffffffffffffffff16021790555042608881905550670de0c098e6d79910608981905550610e10608a81905550620249f0608660006101000a81548163ffffffff021916908363ffffffff16021790555069d3c21bcecceda100000060018190555069d3c21bcecceda1000000608b8190555069d3c21bcecceda100000066470de4df82000069d3c21bcecceda1000000620249f063ffffffff1602028115156200107357fe5b0460858190555069d3c21bcecceda100000066470de4df82000069d3c21bcecceda1000000620249f063ffffffff160202811515620010ae57fe5b04608c819055506000608d8190555064060db8840060878190555069d3c21bcecceda10000006001819055506200118f565b828054600181600116156101000203166002900490600052602060002090601f016020900481019282601f106200112357805160ff191683800117855562001154565b8280016001018555821562001154579182015b828111156200115357825182559160200191906001019062001136565b5b50905062001163919062001167565b5090565b6200118c91905b80821115620011885760008160009055506001016200116e565b5090565b90565b612cd9806200119f6000396000f3006060604052600436106101d8576000357c0100000000000000000000000000000000000000000000000000000000900463ffffffff16806306fdde03146101e3578063095ea7b3146102715780630ab07e88146102cb5780630c7d5cd8146102f457806318160ddd1461032957806323b872dd14610352578063269e3592146103cb578063277b2f97146103f457806329a00e7c1461041d5780632ff2e9dc14610475578063313ce5671461049e57806349f9b0f7146104cd57806354fd4d501461052557806366188463146105b357806366666aa91461060d5780636cc8063e1461063657806370a082311461065f5780637bd703e8146106ac5780637c5e2795146106f95780638da5cb5b146107225780638f5164381461077757806395d89b41146107a057806396365d441461082e578063a6f2ae3a14610857578063a9059cbb14610879578063aa311dc8146108d3578063b03f4d4f146108fc578063b1741fb214610925578063bcfaa79d1461095a578063bf1fe420146109ab578063d73dd623146109ce578063dcd2af1714610a28578063dd62ed3e14610a51578063e4849b3214610abd578063e9bb37a014610af8578063f2fde38b14610b21578063fd748c3a14610b5a578063fe173b9714610b91575b6101e0610bba565b50005b34156101ee57600080fd5b6101f6610d0e565b6040518080602001828103825283818151815260200191508051906020019080838360005b8381101561023657808201518184015260208101905061021b565b50505050905090810190601f1680156102635780820380516001836020036101000a031916815260200191505b509250505060405180910390f35b341561027c57600080fd5b6102b1600480803573ffffffffffffffffffffffffffffffffffffffff16906020019091908035906020019091905050610d47565b604051808215151515815260200191505060405180910390f35b34156102d657600080fd5b6102de610e39565b6040518082815260200191505060405180910390f35b34156102ff57600080fd5b610307610e3f565b604051808263ffffffff1663ffffffff16815260200191505060405180910390f35b341561033457600080fd5b61033c610e55565b6040518082815260200191505060405180910390f35b341561035d57600080fd5b6103b1600480803573ffffffffffffffffffffffffffffffffffffffff1690602001909190803573ffffffffffffffffffffffffffffffffffffffff16906020019091908035906020019091905050610e5f565b604051808215151515815260200191505060405180910390f35b34156103d657600080fd5b6103de611219565b6040518082815260200191505060405180910390f35b34156103ff57600080fd5b610407611250565b6040518082815260200191505060405180910390f35b341561042857600080fd5b61045f600480803590602001909190803590602001909190803563ffffffff16906020019091908035906020019091905050611256565b6040518082815260200191505060405180910390f35b341561048057600080fd5b610488611335565b6040518082815260200191505060405180910390f35b34156104a957600080fd5b6104b1611343565b604051808260ff1660ff16815260200191505060405180910390f35b34156104d857600080fd5b61050f600480803590602001909190803590602001909190803563ffffffff16906020019091908035906020019091905050611348565b6040518082815260200191505060405180910390f35b341561053057600080fd5b61053861144c565b6040518080602001828103825283818151815260200191508051906020019080838360005b8381101561057857808201518184015260208101905061055d565b50505050905090810190601f1680156105a55780820380516001836020036101000a031916815260200191505b509250505060405180910390f35b34156105be57600080fd5b6105f3600480803573ffffffffffffffffffffffffffffffffffffffff169060200190919080359060200190919050506114ea565b604051808215151515815260200191505060405180910390f35b341561061857600080fd5b61062061177b565b6040518082815260200191505060405180910390f35b341561064157600080fd5b610649611781565b6040518082815260200191505060405180910390f35b341561066a57600080fd5b610696600480803573ffffffffffffffffffffffffffffffffffffffff169060200190919050506117aa565b6040518082815260200191505060405180910390f35b34156106b757600080fd5b6106e3600480803573ffffffffffffffffffffffffffffffffffffffff169060200190919050506117f2565b6040518082815260200191505060405180910390f35b341561070457600080fd5b61070c61189a565b6040518082815260200191505060405180910390f35b341561072d57600080fd5b6107356118a5565b604051808273ffffffffffffffffffffffffffffffffffffffff1673ffffffffffffffffffffffffffffffffffffffff16815260200191505060405180910390f35b341561078257600080fd5b61078a6118cb565b6040518082815260200191505060405180910390f35b34156107ab57600080fd5b6107b36118d1565b6040518080602001828103825283818151815260200191508051906020019080838360005b838110156107f35780820151818401526020810190506107d8565b50505050905090810190601f1680156108205780820380516001836020036101000a031916815260200191505b509250505060405180910390f35b341561083957600080fd5b61084161190a565b6040518082815260200191505060405180910390f35b61085f610bba565b604051808215151515815260200191505060405180910390f35b341561088457600080fd5b6108b9600480803573ffffffffffffffffffffffffffffffffffffffff16906020019091908035906020019091905050611910565b604051808215151515815260200191505060405180910390f35b34156108de57600080fd5b6108e6611b2f565b6040518082815260200191505060405180910390f35b341561090757600080fd5b61090f611b3b565b6040518082815260200191505060405180910390f35b341561093057600080fd5b610938611b41565b604051808263ffffffff1663ffffffff16815260200191505060405180910390f35b341561096557600080fd5b610991600480803573ffffffffffffffffffffffffffffffffffffffff16906020019091905050611b48565b604051808215151515815260200191505060405180910390f35b34156109b657600080fd5b6109cc6004808035906020019091905050611c99565b005b34156109d957600080fd5b610a0e600480803573ffffffffffffffffffffffffffffffffffffffff16906020019091908035906020019091905050611d0e565b604051808215151515815260200191505060405180910390f35b3415610a3357600080fd5b610a3b611f0a565b6040518082815260200191505060405180910390f35b3415610a5c57600080fd5b610aa7600480803573ffffffffffffffffffffffffffffffffffffffff1690602001909190803573ffffffffffffffffffffffffffffffffffffffff16906020019091905050611f10565b6040518082815260200191505060405180910390f35b3415610ac857600080fd5b610ade6004808035906020019091905050611f97565b604051808215151515815260200191505060405180910390f35b3415610b0357600080fd5b610b0b6121ed565b6040518082815260200191505060405180910390f35b3415610b2c57600080fd5b610b58600480803573ffffffffffffffffffffffffffffffffffffffff169060200190919050506121f3565b005b3415610b6557600080fd5b610b7b600480803590602001909190505061234b565b6040518082815260200191505060405180910390f35b3415610b9c57600080fd5b610ba4612495565b6040518082815260200191505060405180910390f35b6000806087543a11151515610bcb57fe5b600034111515610bda57600080fd5b610bfc600154608554608660009054906101000a900463ffffffff1634611256565b9050610c138160015461249b90919063ffffffff16565b600181905550610c6a816000803373ffffffffffffffffffffffffffffffffffffffff1673ffffffffffffffffffffffffffffffffffffffff1681526020019081526020016000205461249b90919063ffffffff16565b6000803373ffffffffffffffffffffffffffffffffffffffff1673ffffffffffffffffffffffffffffffffffffffff16815260200190815260200160002081905550610cc13460855461249b90919063ffffffff16565b6085819055507fe7360c0fa1984a85874443100f5b25dd4f84192659660eb199f6c96e11defbcb8134604051808381526020018281526020019250505060405180910390a1600191505090565b6040805190810160405280600d81526020017f52656c6576616e74546f6b656e0000000000000000000000000000000000000081525081565b600081600260003373ffffffffffffffffffffffffffffffffffffffff1673ffffffffffffffffffffffffffffffffffffffff16815260200190815260200160002060008573ffffffffffffffffffffffffffffffffffffffff1673ffffffffffffffffffffffffffffffffffffffff168152602001908152602001600020819055508273ffffffffffffffffffffffffffffffffffffffff163373ffffffffffffffffffffffffffffffffffffffff167f8c5be1e5ebec7d5bd14f71427d1e84f3dd0314c0f7b2291e5b200ac8c7c3b925846040518082815260200191505060405180910390a36001905092915050565b608d5481565b608660009054906101000a900463ffffffff1681565b6000600154905090565b60008073ffffffffffffffffffffffffffffffffffffffff168373ffffffffffffffffffffffffffffffffffffffff1614151515610e9c57600080fd5b6000808573ffffffffffffffffffffffffffffffffffffffff1673ffffffffffffffffffffffffffffffffffffffff168152602001908152602001600020548211151515610ee957600080fd5b600260008573ffffffffffffffffffffffffffffffffffffffff1673ffffffffffffffffffffffffffffffffffffffff16815260200190815260200160002060003373ffffffffffffffffffffffffffffffffffffffff1673ffffffffffffffffffffffffffffffffffffffff168152602001908152602001600020548211151515610f7457600080fd5b610fc5826000808773ffffffffffffffffffffffffffffffffffffffff1673ffffffffffffffffffffffffffffffffffffffff168152602001908152602001600020546124b990919063ffffffff16565b6000808673ffffffffffffffffffffffffffffffffffffffff1673ffffffffffffffffffffffffffffffffffffffff16815260200190815260200160002081905550611058826000808673ffffffffffffffffffffffffffffffffffffffff1673ffffffffffffffffffffffffffffffffffffffff1681526020019081526020016000205461249b90919063ffffffff16565b6000808573ffffffffffffffffffffffffffffffffffffffff1673ffffffffffffffffffffffffffffffffffffffff1681526020019081526020016000208190555061112982600260008773ffffffffffffffffffffffffffffffffffffffff1673ffffffffffffffffffffffffffffffffffffffff16815260200190815260200160002060003373ffffffffffffffffffffffffffffffffffffffff1673ffffffffffffffffffffffffffffffffffffffff168152602001908152602001600020546124b990919063ffffffff16565b600260008673ffffffffffffffffffffffffffffffffffffffff1673ffffffffffffffffffffffffffffffffffffffff16815260200190815260200160002060003373ffffffffffffffffffffffffffffffffffffffff1673ffffffffffffffffffffffffffffffffffffffff168152602001908152602001600020819055508273ffffffffffffffffffffffffffffffffffffffff168473ffffffffffffffffffffffffffffffffffffffff167fddf252ad1be2c89b69c2b068fc378daa952ba7f163c4a11628f55a4df523b3ef846040518082815260200191505060405180910390a3600190509392505050565b69d3c21bcecceda100000066470de4df82000069d3c21bcecceda1000000620249f063ffffffff16020281151561124c57fe5b0481565b608b5481565b6000806000806000808911801561126d5750600088115b801561127f575060008763ffffffff16115b801561129a5750620f424063ffffffff168763ffffffff1611155b15156112a557600080fd5b60008614156112b75760009450611329565b620f424063ffffffff168763ffffffff1614156112ea57876112d98a886124d2565b8115156112e257fe5b049450611329565b6112f48689612505565b9150611305828989620f4240612523565b80945081955050508260ff1661131b8a866124d2565b9060020a9004905088810394505b50505050949350505050565b69d3c21bcecceda100000081565b601281565b60008060008060008060008a1180156113615750600089115b8015611373575060008863ffffffff16115b801561138e5750620f424063ffffffff168863ffffffff1611155b801561139a5750898711155b15156113a557600080fd5b60008714156113b7576000955061143f565b898714156113c75788955061143f565b620f424063ffffffff168863ffffffff1614156113fa57896113e98a896124d2565b8115156113f257fe5b04955061143f565b868a03925061140e8a84620f42408b612523565b809550819650505061142089866124d2565b91508360ff16899060020a0290508481830381151561143b57fe5b0495505b5050505050949350505050565b60038054600181600116156101000203166002900480601f0160208091040260200160405190810160405280929190818152602001828054600181600116156101000203166002900480156114e25780601f106114b7576101008083540402835291602001916114e2565b820191906000526020600020905b8154815290600101906020018083116114c557829003601f168201915b505050505081565b600080600260003373ffffffffffffffffffffffffffffffffffffffff1673ffffffffffffffffffffffffffffffffffffffff16815260200190815260200160002060008573ffffffffffffffffffffffffffffffffffffffff1673ffffffffffffffffffffffffffffffffffffffff168152602001908152602001600020549050808311156115fb576000600260003373ffffffffffffffffffffffffffffffffffffffff1673ffffffffffffffffffffffffffffffffffffffff16815260200190815260200160002060008673ffffffffffffffffffffffffffffffffffffffff1673ffffffffffffffffffffffffffffffffffffffff1681526020019081526020016000208190555061168f565b61160e83826124b990919063ffffffff16565b600260003373ffffffffffffffffffffffffffffffffffffffff1673ffffffffffffffffffffffffffffffffffffffff16815260200190815260200160002060008673ffffffffffffffffffffffffffffffffffffffff1673ffffffffffffffffffffffffffffffffffffffff168152602001908152602001600020819055505b8373ffffffffffffffffffffffffffffffffffffffff163373ffffffffffffffffffffffffffffffffffffffff167f8c5be1e5ebec7d5bd14f71427d1e84f3dd0314c0f7b2291e5b200ac8c7c3b925600260003373ffffffffffffffffffffffffffffffffffffffff1673ffffffffffffffffffffffffffffffffffffffff16815260200190815260200160002060008873ffffffffffffffffffffffffffffffffffffffff1673ffffffffffffffffffffffffffffffffffffffff168152602001908152602001600020546040518082815260200191505060405180910390a3600191505092915050565b608e5481565b600080608a5490508060885481151561179657fe5b0481428115156117a257fe5b040391505090565b60008060008373ffffffffffffffffffffffffffffffffffffffff1673ffffffffffffffffffffffffffffffffffffffff168152602001908152602001600020549050919050565b600073__ConvertLib____________________________6396e4ee3d611817846117aa565b60026000604051602001526040518363ffffffff167c0100000000000000000000000000000000000000000000000000000000028152600401808381526020018281526020019250505060206040518083038186803b151561187857600080fd5b6102c65a03f4151561188957600080fd5b505050604051805190509050919050565b66470de4df82000081565b608460009054906101000a900473ffffffffffffffffffffffffffffffffffffffff1681565b608a5481565b6040805190810160405280600381526020017f52454c000000000000000000000000000000000000000000000000000000000081525081565b60855481565b60008073ffffffffffffffffffffffffffffffffffffffff168373ffffffffffffffffffffffffffffffffffffffff161415151561194d57600080fd5b6000803373ffffffffffffffffffffffffffffffffffffffff1673ffffffffffffffffffffffffffffffffffffffff16815260200190815260200160002054821115151561199a57600080fd5b6119eb826000803373ffffffffffffffffffffffffffffffffffffffff1673ffffffffffffffffffffffffffffffffffffffff168152602001908152602001600020546124b990919063ffffffff16565b6000803373ffffffffffffffffffffffffffffffffffffffff1673ffffffffffffffffffffffffffffffffffffffff16815260200190815260200160002081905550611a7e826000808673ffffffffffffffffffffffffffffffffffffffff1673ffffffffffffffffffffffffffffffffffffffff1681526020019081526020016000205461249b90919063ffffffff16565b6000808573ffffffffffffffffffffffffffffffffffffffff1673ffffffffffffffffffffffffffffffffffffffff168152602001908152602001600020819055508273ffffffffffffffffffffffffffffffffffffffff163373ffffffffffffffffffffffffffffffffffffffff167fddf252ad1be2c89b69c2b068fc378daa952ba7f163c4a11628f55a4df523b3ef846040518082815260200191505060405180910390a36001905092915050565b670de0c098e6d7991081565b60895481565b620249f081565b600080600080608460009054906101000a900473ffffffffffffffffffffffffffffffffffffffff1673ffffffffffffffffffffffffffffffffffffffff163373ffffffffffffffffffffffffffffffffffffffff16141515611baa57600080fd5b611bc1608b546001546124b990919063ffffffff16565b9250611bcc8361234b565b9150608a549050808142811515611bdf57fe5b04026088819055507fc5afe0d1e3743306067bb00d0a7c1f30b9ac58f3775a0f12a25f3cfb35c406ce826040518080602001838152602001828103825260098152602001807f6e6577546f6b656e7300000000000000000000000000000000000000000000008152506020019250505060405180910390a1611c6c82608d5461249b90919063ffffffff16565b608d81905550611c8782608e5461249b90919063ffffffff16565b608e8190555060019350505050919050565b608460009054906101000a900473ffffffffffffffffffffffffffffffffffffffff1673ffffffffffffffffffffffffffffffffffffffff163373ffffffffffffffffffffffffffffffffffffffff16141515611cf557600080fd5b600081111515611d0457600080fd5b8060878190555050565b6000611d9f82600260003373ffffffffffffffffffffffffffffffffffffffff1673ffffffffffffffffffffffffffffffffffffffff16815260200190815260200160002060008673ffffffffffffffffffffffffffffffffffffffff1673ffffffffffffffffffffffffffffffffffffffff1681526020019081526020016000205461249b90919063ffffffff16565b600260003373ffffffffffffffffffffffffffffffffffffffff1673ffffffffffffffffffffffffffffffffffffffff16815260200190815260200160002060008573ffffffffffffffffffffffffffffffffffffffff1673ffffffffffffffffffffffffffffffffffffffff168152602001908152602001600020819055508273ffffffffffffffffffffffffffffffffffffffff163373ffffffffffffffffffffffffffffffffffffffff167f8c5be1e5ebec7d5bd14f71427d1e84f3dd0314c0f7b2291e5b200ac8c7c3b925600260003373ffffffffffffffffffffffffffffffffffffffff1673ffffffffffffffffffffffffffffffffffffffff16815260200190815260200160002060008773ffffffffffffffffffffffffffffffffffffffff1673ffffffffffffffffffffffffffffffffffffffff168152602001908152602001600020546040518082815260200191505060405180910390a36001905092915050565b608c5481565b6000600260008473ffffffffffffffffffffffffffffffffffffffff1673ffffffffffffffffffffffffffffffffffffffff16815260200190815260200160002060008373ffffffffffffffffffffffffffffffffffffffff1673ffffffffffffffffffffffffffffffffffffffff16815260200190815260200160002054905092915050565b60008060008060006087543a11151515611fad57fe5b600086118015611ffb5750856000803373ffffffffffffffffffffffffffffffffffffffff1673ffffffffffffffffffffffffffffffffffffffff1681526020019081526020016000205410155b151561200657600080fd5b6001549350612020608c54856124b990919063ffffffff16565b861115151561202e57600080fd5b608d54840184608660009054906101000a900463ffffffff1663ffffffff160281151561205757fe5b049250608660009054906101000a900463ffffffff1663ffffffff168363ffffffff166085540281151561208757fe5b04915061209684838589611348565b90503373ffffffffffffffffffffffffffffffffffffffff166108fc829081150290604051600060405180830381858888f1935050505015156120d857600080fd5b6120ed816085546124b990919063ffffffff16565b608581905550612144866000803373ffffffffffffffffffffffffffffffffffffffff1673ffffffffffffffffffffffffffffffffffffffff168152602001908152602001600020546124b990919063ffffffff16565b6000803373ffffffffffffffffffffffffffffffffffffffff1673ffffffffffffffffffffffffffffffffffffffff1681526020019081526020016000208190555061219b866001546124b990919063ffffffff16565b6001819055507f210405eb88ac7589aa9de0a6e36b9c9d3cd6e4061b74363d250a77afe3c6efb78682604051808381526020018281526020019250505060405180910390a16001945050505050919050565b610e1081565b608460009054906101000a900473ffffffffffffffffffffffffffffffffffffffff1673ffffffffffffffffffffffffffffffffffffffff163373ffffffffffffffffffffffffffffffffffffffff1614151561224f57600080fd5b600073ffffffffffffffffffffffffffffffffffffffff168173ffffffffffffffffffffffffffffffffffffffff161415151561228b57600080fd5b8073ffffffffffffffffffffffffffffffffffffffff16608460009054906101000a900473ffffffffffffffffffffffffffffffffffffffff1673ffffffffffffffffffffffffffffffffffffffff167f8be0079c531659141344cd1fd0a4f28419497f9722a3daafe3b4186f6b6457e060405160405180910390a380608460006101000a81548173ffffffffffffffffffffffffffffffffffffffff021916908373ffffffffffffffffffffffffffffffffffffffff16021790555050565b6000806000806000806000806089549650608a5495504294508560885481151561237157fe5b04868681151561237d57fe5b0403935060008411151561239057600080fd5b869250600191505b838210156123d557670de0b6b3a76400006123bc888561258090919063ffffffff16565b8115156123c557fe5b0492508180600101925050612398565b7fc5afe0d1e3743306067bb00d0a7c1f30b9ac58f3775a0f12a25f3cfb35c406ce836040518080602001838152602001828103825260048152602001807f72617465000000000000000000000000000000000000000000000000000000008152506020019250505060405180910390a188905061248781612479670de0b6b3a764000061246b878e61258090919063ffffffff16565b6125bb90919063ffffffff16565b6124b990919063ffffffff16565b975050505050505050919050565b60875481565b60008082840190508381101515156124af57fe5b8091505092915050565b60008282111515156124c757fe5b818303905092915050565b600080828402905060008414806124f357508284828115156124f057fe5b04145b15156124fb57fe5b8091505092915050565b600080828401905083811015151561251957fe5b8091505092915050565b6000806000808463ffffffff168663ffffffff166125418a8a6125d6565b0281151561254b57fe5b0491506125578261273d565b905061257081607f0360ff16839060020a9004826127fd565b8193509350505094509492505050565b600080600084141561259557600091506125b4565b82840290508284828115156125a657fe5b041415156125b057fe5b8091505b5092915050565b60008082848115156125c957fe5b0490508091505092915050565b60008060008060007001ffffffffffffffffffffffffffffffff87111515156125fb57fe5b60009350856f80000000000000000000000000000000880281151561261c57fe5b049250700100000000000000000000000000000000831015156126855761265d6f800000000000000000000000000000008481151561265757fe5b04612c21565b91508160ff16839060020a900492506f800000000000000000000000000000008260ff160293505b6f8000000000000000000000000000000083111561271357607f90505b60008160ff161115612712576f800000000000000000000000000000008384028115156126cb57fe5b04925070010000000000000000000000000000000083101515612706576001839060020a900492506001810360ff1660019060020a02840193505b806001900390506126a2565b5b607a60ff166f02c5c85fdf473de6af278ece600fcbda85029060020a900494505050505092915050565b60008060008060209250607f91505b8160ff166001840160ff16101561279e57600282840160ff1681151561276e57fe5b0490508460048260ff1660808110151561278457fe5b015410151561279557809250612799565b8091505b61274c565b8460048360ff166080811015156127b157fe5b01541015156127c2578193506127f5565b8460048460ff166080811015156127d557fe5b01541015156127e6578293506127f5565b600015156127f057fe5b600093505b505050919050565b6000806000849150600090508360ff168583029060020a900491506f03442c4e6074a82f1797f72ac00000008202810190508360ff168583029060020a900491506f0116b96f757c380fb287fd0e400000008202810190508360ff168583029060020a900491506e45ae5bdd5f0e03eca1ff43900000008202810190508360ff168583029060020a900491506e0defabf91302cd95b9ffda500000008202810190508360ff168583029060020a900491506e02529ca9832b22439efff9b80000008202810190508360ff168583029060020a900491506d54f1cf12bd04e516b6da880000008202810190508360ff168583029060020a900491506d0a9e39e257a09ca2d6db510000008202810190508360ff168583029060020a900491506d012e066e7b839fa050c3090000008202810190508360ff168583029060020a900491506c1e33d7d926c329a1ad1a8000008202810190508360ff168583029060020a900491506c02bee513bdb4a6b19b5f8000008202810190508360ff168583029060020a900491506b3a9316fa79b88eccf2a000008202810190508360ff168583029060020a900491506b048177ebe1fa8123752000008202810190508360ff168583029060020a900491506a5263fe90242dcbacf000008202810190508360ff168583029060020a900491506a057e22099c030d941000008202810190508360ff168583029060020a900491506957e22099c030d94100008202810190508360ff168583029060020a9004915069052b6b545699763100008202810190508360ff168583029060020a90049150684985f67696bf7480008202810190508360ff168583029060020a900491506803dea12ea99e4980008202810190508360ff168583029060020a900491506731880f2214b6e0008202810190508360ff168583029060020a9004915067025bcff56eb360008202810190508360ff168583029060020a90049150661b722e10ab10008202810190508360ff168583029060020a900491506601317c700770008202810190508360ff168583029060020a90049150650cba84aafa008202810190508360ff168583029060020a900491506482573a0a008202810190508360ff168583029060020a900491506405035ad9008202810190508360ff168583029060020a90049150632f881b008202810190508360ff168583029060020a900491506301b293408202810190508360ff168583029060020a90049150620efc408202810190508360ff168583029060020a90049150617fe08202810190508360ff168583029060020a900491506104208202810190508360ff168583029060020a9004915060218202810190508360ff168583029060020a9004915060018202810190508360ff1660019060020a02856f0688589cc0e9505e2f2fee558000000083811515612c1457fe5b0401019250505092915050565b6000806000809150610100841015612c58575b6001841115612c53576001849060020a90049350600182019150612c34565b612ca3565b608090505b60008160ff161115612ca2578060ff1660019060020a0284101515612c8f578060ff16849060020a9004935080821791505b60018160ff169060020a90049050612c5d565b5b81925050509190505600a165627a7a7230582004d07ded80db54494d93592c429eae52606965881ac9c5b3a771375b6c4f8da30029",
  "source": "pragma solidity ^0.4.18;\n\nimport \"./ConvertLib.sol\";\nimport \"zeppelin-solidity/contracts/token/ERC20/StandardToken.sol\";\nimport \"zeppelin-solidity/contracts/ownership/Ownable.sol\";\nimport \"./RelevantBondingCurve.sol\";\n\ncontract RelevantCoin is RelevantBondingCurve {\n  using ConvertLib for uint;\n\n  // uint public constant MAX_UINT = (2**256) - 1;\n\n  string public constant name = \"RelevantToken\";\n  string public constant symbol = \"REL\";\n  uint8 public constant decimals = 18;\n\n  uint256 public constant TIME_INTERVAL = 1 hours;\n  uint256 public constant HOURLY_INFLATION = 1000010880216701200; // 10% annual\n  // uint256 public constant INITIAL_SUPPLY = 10000 * (10 ** uint256(decimals));\n  uint256 public constant INITIAL_SUPPLY = 1000000 * (10 ** 18);\n  uint256 public constant INITIAL_PRICE = 2 * (10 ** 16);\n  uint32 public constant CURVE_RATIO = 150000;\n  uint256 public constant INITAL_BALANCE = CURVE_RATIO * INITIAL_SUPPLY * INITIAL_PRICE / (1000000 * 10 ** 18);\n\n  event Log(string logString, uint value);\n\n  /**\n   * @dev Not needed right now\n   * @param addr that for which to check the balance\n   * @return {uint} banace in Ether\n   */\n  function getBalanceInEth(address addr) public view returns(uint){\n    return ConvertLib.convert(balanceOf(addr), 2);\n  }\n\n\t/**\n\t * @dev Constructor that gives msg.sender all of existing tokens.\n\t */\n  function RelevantCoin() public {\n    owner = msg.sender;\n\n    // inflation params\n    lastInflationCalc = now;\n    inflationRatePerInterval = HOURLY_INFLATION;\n    timeInterval = TIME_INTERVAL;\n\n    // bonding curve params\n    reserveRatio = CURVE_RATIO;\n    totalSupply_ = INITIAL_SUPPLY;\n    virtualSupply = INITIAL_SUPPLY;\n    poolBalance = INITAL_BALANCE;\n    virtualBalance = INITAL_BALANCE;\n    inflationSupply = 0;\n    gasPrice = 26 * (10 ** 9);\n\n    // token params\n    totalSupply_ = INITIAL_SUPPLY;\n    // balances[owner] = INITIAL_SUPPLY;\n    // Transfer(0x0, owner, INITIAL_SUPPLY);\n  }\n\n}\n",
  "sourcePath": "/Users/billy/react/bonding-token-ui/src/relevant-contracts/contracts/RelevantCoin.sol",
  "compiler": {
    "name": "solc",
    "version": "0.4.19+commit.c4cbbb05.Emscripten.clang"
  },
  "schemaVersion": "1.0.1",
  "updatedAt": "2018-02-18T05:58:02.827Z"
}