{
  "contractName": "RelevantCoin",
  "abi": [
    {
      "constant": true,
      "inputs": [],
      "name": "name",
      "outputs": [
        {
          "name": "",
          "type": "string"
        }
      ],
      "payable": false,
      "stateMutability": "view",
      "type": "function"
    },
    {
      "constant": false,
      "inputs": [
        {
          "name": "_spender",
          "type": "address"
        },
        {
          "name": "_value",
          "type": "uint256"
        }
      ],
      "name": "approve",
      "outputs": [
        {
          "name": "",
          "type": "bool"
        }
      ],
      "payable": false,
      "stateMutability": "nonpayable",
      "type": "function"
    },
    {
      "constant": true,
      "inputs": [],
      "name": "inflationSupply",
      "outputs": [
        {
          "name": "",
          "type": "uint256"
        }
      ],
      "payable": false,
      "stateMutability": "view",
      "type": "function"
    },
    {
      "constant": true,
      "inputs": [],
      "name": "reserveRatio",
      "outputs": [
        {
          "name": "",
          "type": "uint32"
        }
      ],
      "payable": false,
      "stateMutability": "view",
      "type": "function"
    },
    {
      "constant": false,
      "inputs": [
        {
          "name": "_recipients",
          "type": "address[]"
        },
        {
          "name": "_balances",
          "type": "uint256[]"
        }
      ],
      "name": "distributeRewards",
      "outputs": [
        {
          "name": "",
          "type": "bool"
        }
      ],
      "payable": false,
      "stateMutability": "nonpayable",
      "type": "function"
    },
    {
      "constant": true,
      "inputs": [],
      "name": "totalSupply",
      "outputs": [
        {
          "name": "",
          "type": "uint256"
        }
      ],
      "payable": false,
      "stateMutability": "view",
      "type": "function"
    },
    {
      "constant": false,
      "inputs": [
        {
          "name": "_from",
          "type": "address"
        },
        {
          "name": "_to",
          "type": "address"
        },
        {
          "name": "_value",
          "type": "uint256"
        }
      ],
      "name": "transferFrom",
      "outputs": [
        {
          "name": "",
          "type": "bool"
        }
      ],
      "payable": false,
      "stateMutability": "nonpayable",
      "type": "function"
    },
    {
      "constant": false,
      "inputs": [],
      "name": "buyVirtualTokens",
      "outputs": [
        {
          "name": "",
          "type": "bool"
        }
      ],
      "payable": true,
      "stateMutability": "payable",
      "type": "function"
    },
    {
      "constant": true,
      "inputs": [],
      "name": "INITAL_BALANCE",
      "outputs": [
        {
          "name": "",
          "type": "uint256"
        }
      ],
      "payable": false,
      "stateMutability": "view",
      "type": "function"
    },
    {
      "constant": true,
      "inputs": [],
      "name": "virtualSupply",
      "outputs": [
        {
          "name": "",
          "type": "uint256"
        }
      ],
      "payable": false,
      "stateMutability": "view",
      "type": "function"
    },
    {
      "constant": false,
      "inputs": [
        {
          "name": "rewards",
          "type": "uint256"
        }
      ],
      "name": "allocateRewards",
      "outputs": [
        {
          "name": "",
          "type": "bool"
        }
      ],
      "payable": false,
      "stateMutability": "nonpayable",
      "type": "function"
    },
    {
      "constant": true,
      "inputs": [
        {
          "name": "_supply",
          "type": "uint256"
        },
        {
          "name": "_connectorBalance",
          "type": "uint256"
        },
        {
          "name": "_connectorWeight",
          "type": "uint32"
        },
        {
          "name": "_depositAmount",
          "type": "uint256"
        }
      ],
      "name": "calculatePurchaseReturn",
      "outputs": [
        {
          "name": "",
          "type": "uint256"
        }
      ],
      "payable": false,
      "stateMutability": "view",
      "type": "function"
    },
    {
      "constant": true,
      "inputs": [],
      "name": "INITIAL_SUPPLY",
      "outputs": [
        {
          "name": "",
          "type": "uint256"
        }
      ],
      "payable": false,
      "stateMutability": "view",
      "type": "function"
    },
    {
      "constant": true,
      "inputs": [],
      "name": "decimals",
      "outputs": [
        {
          "name": "",
          "type": "uint8"
        }
      ],
      "payable": false,
      "stateMutability": "view",
      "type": "function"
    },
    {
      "constant": true,
      "inputs": [
        {
          "name": "_supply",
          "type": "uint256"
        },
        {
          "name": "_connectorBalance",
          "type": "uint256"
        },
        {
          "name": "_connectorWeight",
          "type": "uint32"
        },
        {
          "name": "_sellAmount",
          "type": "uint256"
        }
      ],
      "name": "calculateSaleReturn",
      "outputs": [
        {
          "name": "",
          "type": "uint256"
        }
      ],
      "payable": false,
      "stateMutability": "view",
      "type": "function"
    },
    {
      "constant": true,
      "inputs": [],
      "name": "version",
      "outputs": [
        {
          "name": "",
          "type": "string"
        }
      ],
      "payable": false,
      "stateMutability": "view",
      "type": "function"
    },
    {
      "constant": true,
      "inputs": [],
      "name": "lastInflationCalc",
      "outputs": [
        {
          "name": "",
          "type": "uint256"
        }
      ],
      "payable": false,
      "stateMutability": "view",
      "type": "function"
    },
    {
      "constant": false,
      "inputs": [
        {
          "name": "_spender",
          "type": "address"
        },
        {
          "name": "_subtractedValue",
          "type": "uint256"
        }
      ],
      "name": "decreaseApproval",
      "outputs": [
        {
          "name": "",
          "type": "bool"
        }
      ],
      "payable": false,
      "stateMutability": "nonpayable",
      "type": "function"
    },
    {
      "constant": true,
      "inputs": [],
      "name": "rewardPool",
      "outputs": [
        {
          "name": "",
          "type": "uint256"
        }
      ],
      "payable": false,
      "stateMutability": "view",
      "type": "function"
    },
    {
      "constant": true,
      "inputs": [],
      "name": "intervalsSinceLastInflationUpdate",
      "outputs": [
        {
          "name": "",
          "type": "uint256"
        }
      ],
      "payable": false,
      "stateMutability": "view",
      "type": "function"
    },
    {
      "constant": false,
      "inputs": [
        {
          "name": "_amount",
          "type": "uint256"
        },
        {
          "name": "_sig",
          "type": "bytes"
        }
      ],
      "name": "cashOut",
      "outputs": [
        {
          "name": "",
          "type": "bool"
        }
      ],
      "payable": false,
      "stateMutability": "nonpayable",
      "type": "function"
    },
    {
      "constant": true,
      "inputs": [
        {
          "name": "_owner",
          "type": "address"
        }
      ],
      "name": "balanceOf",
      "outputs": [
        {
          "name": "balance",
          "type": "uint256"
        }
      ],
      "payable": false,
      "stateMutability": "view",
      "type": "function"
    },
    {
      "constant": true,
      "inputs": [],
      "name": "INITIAL_PRICE",
      "outputs": [
        {
          "name": "",
          "type": "uint256"
        }
      ],
      "payable": false,
      "stateMutability": "view",
      "type": "function"
    },
    {
      "constant": true,
      "inputs": [],
      "name": "owner",
      "outputs": [
        {
          "name": "",
          "type": "address"
        }
      ],
      "payable": false,
      "stateMutability": "view",
      "type": "function"
    },
    {
      "constant": true,
      "inputs": [],
      "name": "timeInterval",
      "outputs": [
        {
          "name": "",
          "type": "uint256"
        }
      ],
      "payable": false,
      "stateMutability": "view",
      "type": "function"
    },
    {
      "constant": true,
      "inputs": [],
      "name": "symbol",
      "outputs": [
        {
          "name": "",
          "type": "string"
        }
      ],
      "payable": false,
      "stateMutability": "view",
      "type": "function"
    },
    {
      "constant": true,
      "inputs": [],
      "name": "poolBalance",
      "outputs": [
        {
          "name": "",
          "type": "uint256"
        }
      ],
      "payable": false,
      "stateMutability": "view",
      "type": "function"
    },
    {
      "constant": false,
      "inputs": [],
      "name": "buy",
      "outputs": [
        {
          "name": "",
          "type": "bool"
        }
      ],
      "payable": true,
      "stateMutability": "payable",
      "type": "function"
    },
    {
      "constant": false,
      "inputs": [
        {
          "name": "_to",
          "type": "address"
        },
        {
          "name": "_value",
          "type": "uint256"
        }
      ],
      "name": "transfer",
      "outputs": [
        {
          "name": "",
          "type": "bool"
        }
      ],
      "payable": false,
      "stateMutability": "nonpayable",
      "type": "function"
    },
    {
      "constant": true,
      "inputs": [],
      "name": "HOURLY_INFLATION",
      "outputs": [
        {
          "name": "",
          "type": "uint256"
        }
      ],
      "payable": false,
      "stateMutability": "view",
      "type": "function"
    },
    {
      "constant": true,
      "inputs": [],
      "name": "inflationRatePerInterval",
      "outputs": [
        {
          "name": "",
          "type": "uint256"
        }
      ],
      "payable": false,
      "stateMutability": "view",
      "type": "function"
    },
    {
      "constant": true,
      "inputs": [],
      "name": "CURVE_RATIO",
      "outputs": [
        {
          "name": "",
          "type": "uint32"
        }
      ],
      "payable": false,
      "stateMutability": "view",
      "type": "function"
    },
    {
      "constant": false,
      "inputs": [
        {
          "name": "_to",
          "type": "address"
        }
      ],
      "name": "mintTokens",
      "outputs": [
        {
          "name": "",
          "type": "bool"
        }
      ],
      "payable": false,
      "stateMutability": "nonpayable",
      "type": "function"
    },
    {
      "constant": false,
      "inputs": [
        {
          "name": "_gasPrice",
          "type": "uint256"
        }
      ],
      "name": "setGasPrice",
      "outputs": [],
      "payable": false,
      "stateMutability": "nonpayable",
      "type": "function"
    },
    {
      "constant": false,
      "inputs": [],
      "name": "mintRewardTokens",
      "outputs": [
        {
          "name": "",
          "type": "bool"
        }
      ],
      "payable": false,
      "stateMutability": "nonpayable",
      "type": "function"
    },
    {
      "constant": false,
      "inputs": [
        {
          "name": "_spender",
          "type": "address"
        },
        {
          "name": "_addedValue",
          "type": "uint256"
        }
      ],
      "name": "increaseApproval",
      "outputs": [
        {
          "name": "",
          "type": "bool"
        }
      ],
      "payable": false,
      "stateMutability": "nonpayable",
      "type": "function"
    },
    {
      "constant": true,
      "inputs": [],
      "name": "virtualBalance",
      "outputs": [
        {
          "name": "",
          "type": "uint256"
        }
      ],
      "payable": false,
      "stateMutability": "view",
      "type": "function"
    },
    {
      "constant": true,
      "inputs": [
        {
          "name": "_owner",
          "type": "address"
        },
        {
          "name": "_spender",
          "type": "address"
        }
      ],
      "name": "allowance",
      "outputs": [
        {
          "name": "",
          "type": "uint256"
        }
      ],
      "payable": false,
      "stateMutability": "view",
      "type": "function"
    },
    {
      "constant": false,
      "inputs": [
        {
          "name": "sellAmount",
          "type": "uint256"
        }
      ],
      "name": "sell",
      "outputs": [
        {
          "name": "",
          "type": "bool"
        }
      ],
      "payable": false,
      "stateMutability": "nonpayable",
      "type": "function"
    },
    {
      "constant": true,
      "inputs": [],
      "name": "TIME_INTERVAL",
      "outputs": [
        {
          "name": "",
          "type": "uint256"
        }
      ],
      "payable": false,
      "stateMutability": "view",
      "type": "function"
    },
    {
      "constant": true,
      "inputs": [
        {
          "name": "_account",
          "type": "address"
        }
      ],
      "name": "nonceOf",
      "outputs": [
        {
          "name": "",
          "type": "uint256"
        }
      ],
      "payable": false,
      "stateMutability": "view",
      "type": "function"
    },
    {
      "constant": false,
      "inputs": [
        {
          "name": "newOwner",
          "type": "address"
        }
      ],
      "name": "transferOwnership",
      "outputs": [],
      "payable": false,
      "stateMutability": "nonpayable",
      "type": "function"
    },
    {
      "constant": true,
      "inputs": [],
      "name": "distributedRewards",
      "outputs": [
        {
          "name": "",
          "type": "uint256"
        }
      ],
      "payable": false,
      "stateMutability": "view",
      "type": "function"
    },
    {
      "constant": true,
      "inputs": [
        {
          "name": "_tokenSupply",
          "type": "uint256"
        }
      ],
      "name": "computeInflation",
      "outputs": [
        {
          "name": "",
          "type": "uint256"
        }
      ],
      "payable": false,
      "stateMutability": "view",
      "type": "function"
    },
    {
      "constant": true,
      "inputs": [],
      "name": "gasPrice",
      "outputs": [
        {
          "name": "",
          "type": "uint256"
        }
      ],
      "payable": false,
      "stateMutability": "view",
      "type": "function"
    },
    {
      "inputs": [],
      "payable": false,
      "stateMutability": "nonpayable",
      "type": "constructor"
    },
    {
      "payable": true,
      "stateMutability": "payable",
      "type": "fallback"
    },
    {
      "anonymous": false,
      "inputs": [
        {
          "indexed": false,
          "name": "logString",
          "type": "string"
        },
        {
          "indexed": false,
          "name": "value",
          "type": "uint256"
        }
      ],
      "name": "Log",
      "type": "event"
    },
    {
      "anonymous": false,
      "inputs": [
        {
          "indexed": false,
          "name": "value",
          "type": "address"
        }
      ],
      "name": "LogAddress",
      "type": "event"
    },
    {
      "anonymous": false,
      "inputs": [
        {
          "indexed": false,
          "name": "value",
          "type": "bytes32"
        }
      ],
      "name": "LogHash",
      "type": "event"
    },
    {
      "anonymous": false,
      "inputs": [
        {
          "indexed": false,
          "name": "logString",
          "type": "string"
        },
        {
          "indexed": false,
          "name": "value",
          "type": "uint256"
        }
      ],
      "name": "LogInflation",
      "type": "event"
    },
    {
      "anonymous": false,
      "inputs": [
        {
          "indexed": false,
          "name": "amountMinted",
          "type": "uint256"
        },
        {
          "indexed": false,
          "name": "totalCost",
          "type": "uint256"
        }
      ],
      "name": "LogMint",
      "type": "event"
    },
    {
      "anonymous": false,
      "inputs": [
        {
          "indexed": false,
          "name": "amountWithdrawn",
          "type": "uint256"
        },
        {
          "indexed": false,
          "name": "reward",
          "type": "uint256"
        }
      ],
      "name": "LogWithdraw",
      "type": "event"
    },
    {
      "anonymous": false,
      "inputs": [
        {
          "indexed": false,
          "name": "logString",
          "type": "string"
        },
        {
          "indexed": false,
          "name": "value",
          "type": "uint256"
        }
      ],
      "name": "LogBondingCurve",
      "type": "event"
    },
    {
      "anonymous": false,
      "inputs": [
        {
          "indexed": true,
          "name": "previousOwner",
          "type": "address"
        },
        {
          "indexed": true,
          "name": "newOwner",
          "type": "address"
        }
      ],
      "name": "OwnershipTransferred",
      "type": "event"
    },
    {
      "anonymous": false,
      "inputs": [
        {
          "indexed": true,
          "name": "owner",
          "type": "address"
        },
        {
          "indexed": true,
          "name": "spender",
          "type": "address"
        },
        {
          "indexed": false,
          "name": "value",
          "type": "uint256"
        }
      ],
      "name": "Approval",
      "type": "event"
    },
    {
      "anonymous": false,
      "inputs": [
        {
          "indexed": true,
          "name": "from",
          "type": "address"
        },
        {
          "indexed": true,
          "name": "to",
          "type": "address"
        },
        {
          "indexed": false,
          "name": "value",
          "type": "uint256"
        }
      ],
      "name": "Transfer",
      "type": "event"
    }
  ],
  "bytecode": "0x60606040526040805190810160405280600381526020017f302e330000000000000000000000000000000000000000000000000000000000815250600390805190602001906200005192919062001138565b506040805190810160405280600381526020017f302e330000000000000000000000000000000000000000000000000000000000815250608490805190602001906200009f92919062001138565b5060006088556022608c5560006091553415620000bb57600080fd5b701c35fedd14ffffffffffffffffffffffff60046020608081101515620000de57fe5b0181905550701b0ce43b323fffffffffffffffffffffff600460216080811015156200010657fe5b01819055507019f0028ec1ffffffffffffffffffffffff600460226080811015156200012e57fe5b01819055507018ded91f0e7fffffffffffffffffffffff600460236080811015156200015657fe5b01819055507017d8ec7f0417ffffffffffffffffffffff600460246080811015156200017e57fe5b01819055507016ddc6556cdbffffffffffffffffffffff60046025608081101515620001a657fe5b01819055507015ecf52776a1ffffffffffffffffffffff60046026608081101515620001ce57fe5b01819055507015060c256cb2ffffffffffffffffffffff60046027608081101515620001f657fe5b0181905550701428a2f98d72ffffffffffffffffffffff600460286080811015156200021e57fe5b01819055507013545598e5c23fffffffffffffffffffff600460296080811015156200024657fe5b0181905550701288c4161ce1dfffffffffffffffffffff6004602a6080811015156200026e57fe5b01819055507011c592761c666fffffffffffffffffffff6004602b6080811015156200029657fe5b018190555070110a688680a757ffffffffffffffffffff6004602c608081101515620002be57fe5b0181905550701056f1b5bedf77ffffffffffffffffffff6004602d608081101515620002e657fe5b0181905550700faadceceeff8bffffffffffffffffffff6004602e6080811015156200030e57fe5b0181905550700f05dc6b27edadffffffffffffffffffff6004602f6080811015156200033657fe5b0181905550700e67a5a25da4107fffffffffffffffffff600460306080811015156200035e57fe5b0181905550700dcff115b14eedffffffffffffffffffff600460316080811015156200038657fe5b0181905550700d3e7a392431239fffffffffffffffffff60046032608081101515620003ae57fe5b0181905550700cb2ff529eb71e4fffffffffffffffffff60046033608081101515620003d657fe5b0181905550700c2d415c3db974afffffffffffffffffff60046034608081101515620003fe57fe5b0181905550700bad03e7d883f69bffffffffffffffffff600460356080811015156200042657fe5b0181905550700b320d03b2c343d5ffffffffffffffffff600460366080811015156200044e57fe5b0181905550700abc25204e02828dffffffffffffffffff600460376080811015156200047657fe5b0181905550700a4b16f74ee4bb207fffffffffffffffff600460386080811015156200049e57fe5b01819055507009deaf736ac1f569ffffffffffffffffff60046039608081101515620004c657fe5b0181905550700976bd9952c7aa957fffffffffffffffff6004603a608081101515620004ee57fe5b01819055507009131271922eaa606fffffffffffffffff6004603b6080811015156200051657fe5b01819055507008b380f3558668c46fffffffffffffffff6004603c6080811015156200053e57fe5b0181905550700857ddf0117efa215bffffffffffffffff6004603d6080811015156200056657fe5b01819055507007ffffffffffffffffffffffffffffffff6004603e6080811015156200058e57fe5b01819055507007abbf6f6abb9d087fffffffffffffffff6004603f608081101515620005b657fe5b018190555070075af62cbac95f7dfa7fffffffffffffff60046040608081101515620005de57fe5b018190555070070d7fb7452e187ac13fffffffffffffff600460416080811015156200060657fe5b01819055507006c3390ecc8af379295fffffffffffffff600460426080811015156200062e57fe5b018190555070067c00a3b07ffc01fd6fffffffffffffff600460436080811015156200065657fe5b0181905550700637b647c39cbb9d3d27ffffffffffffff600460446080811015156200067e57fe5b01819055507005f63b1fc104dbd39587ffffffffffffff60046045608081101515620006a657fe5b01819055507005b771955b36e12f7235ffffffffffffff60046046608081101515620006ce57fe5b018190555070057b3d49dda84556d6f6ffffffffffffff60046047608081101515620006f657fe5b018190555070054183095b2c8ececf30ffffffffffffff600460486080811015156200071e57fe5b018190555070050a28be635ca2b888f77fffffffffffff600460496080811015156200074657fe5b01819055507004d5156639708c9db33c3fffffffffffff6004604a6080811015156200076e57fe5b01819055507004a23105873875bd52dfdfffffffffffff6004604b6080811015156200079657fe5b0181905550700471649d87199aa990756fffffffffffff6004604c608081101515620007be57fe5b01819055507004429a21a029d4c1457cfbffffffffffff6004604d608081101515620007e657fe5b0181905550700415bc6d6fb7dd71af2cb3ffffffffffff6004604e6080811015156200080e57fe5b01819055507003eab73b3bbfe282243ce1ffffffffffff6004604f6080811015156200083657fe5b01819055507003c1771ac9fb6b4c18e229ffffffffffff600460506080811015156200085e57fe5b0181905550700399e96897690418f785257fffffffffff600460516080811015156200088657fe5b0181905550700373fc456c53bb779bf0ea9fffffffffff60046052608081101515620008ae57fe5b018190555070034f9e8e490c48e67e6ab8bfffffffffff60046053608081101515620008d657fe5b018190555070032cbfd4a7adc790560b3337ffffffffff60046054608081101515620008fe57fe5b018190555070030b50570f6e5d2acca94613ffffffffff600460556080811015156200092657fe5b01819055507002eb40f9f620fda6b56c2861ffffffffff600460566080811015156200094e57fe5b01819055507002cc8340ecb0d0f520a6af58ffffffffff600460576080811015156200097657fe5b01819055507002af09481380a0a35cf1ba02ffffffffff600460586080811015156200099e57fe5b0181905550700292c5bdd3b92ec810287b1b3fffffffff60046059608081101515620009c657fe5b0181905550700277abdcdab07d5a77ac6d6b9fffffffff6004605a608081101515620009ee57fe5b018190555070025daf6654b1eaa55fd64df5efffffffff6004605b60808110151562000a1657fe5b0181905550700244c49c648baa98192dce88b7ffffffff6004605c60808110151562000a3e57fe5b018190555070022ce03cd5619a311b2471268bffffffff6004605d60808110151562000a6657fe5b0181905550700215f77c045fbe885654a44a0fffffffff6004605e60808110151562000a8e57fe5b01819055507001ffffffffffffffffffffffffffffffff6004605f60808110151562000ab657fe5b01819055507001eaefdbdaaee7421fc4d3ede5ffffffff6004606060808110151562000ade57fe5b01819055507001d6bd8b2eb257df7e8ca57b09bfffffff6004606160808110151562000b0657fe5b01819055507001c35fedd14b861eb0443f7f133fffffff6004606260808110151562000b2e57fe5b01819055507001b0ce43b322bcde4a56e8ada5afffffff6004606360808110151562000b5657fe5b018190555070019f0028ec1fff007f5a195a39dfffffff6004606460808110151562000b7e57fe5b018190555070018ded91f0e72ee74f49b15ba527ffffff6004606560808110151562000ba657fe5b018190555070017d8ec7f04136f4e5615fd41a63ffffff6004606660808110151562000bce57fe5b018190555070016ddc6556cdb84bdc8d12d22e6fffffff6004606760808110151562000bf657fe5b018190555070015ecf52776a1155b5bd8395814f7fffff6004606860808110151562000c1e57fe5b018190555070015060c256cb23b3b3cc3754cf40ffffff6004606960808110151562000c4657fe5b01819055507001428a2f98d728ae223ddab715be3fffff6004606a60808110151562000c6e57fe5b018190555070013545598e5c23276ccf0ede68034fffff6004606b60808110151562000c9657fe5b01819055507001288c4161ce1d6f54b7f61081194fffff6004606c60808110151562000cbe57fe5b018190555070011c592761c666aa641d5a01a40f17ffff6004606d60808110151562000ce657fe5b0181905550700110a688680a7530515f3e6e6cfdcdffff6004606e60808110151562000d0e57fe5b01819055507001056f1b5bedf75c6bcb2ce8aed428ffff6004606f60808110151562000d3657fe5b01819055506ffaadceceeff8a0890f3875f008277fff6004607060808110151562000d5d57fe5b01819055506ff05dc6b27edad306388a600f6ba0bfff6004607160808110151562000d8457fe5b01819055506fe67a5a25da41063de1495d5b18cdbfff6004607260808110151562000dab57fe5b01819055506fdcff115b14eedde6fc3aa5353f2e4fff6004607360808110151562000dd257fe5b01819055506fd3e7a3924312399f9aae2e0f868f8fff6004607460808110151562000df957fe5b01819055506fcb2ff529eb71e41582cccd5a1ee26fff6004607560808110151562000e2057fe5b01819055506fc2d415c3db974ab32a51840c0b67edff6004607660808110151562000e4757fe5b01819055506fbad03e7d883f69ad5b0a186184e06bff6004607760808110151562000e6e57fe5b01819055506fb320d03b2c343d4829abd6075f0cc5ff6004607860808110151562000e9557fe5b01819055506fabc25204e02828d73c6e80bcdb1a95bf6004607960808110151562000ebc57fe5b01819055506fa4b16f74ee4bb2040a1ec6c15fbbf2df6004607a60808110151562000ee357fe5b01819055506f9deaf736ac1f569deb1b5ae3f36c130f6004607b60808110151562000f0a57fe5b01819055506f976bd9952c7aa957f5937d790ef650376004607c60808110151562000f3157fe5b01819055506f9131271922eaa6064b73a22d0bd4f2bf6004607d60808110151562000f5857fe5b01819055506f8b380f3558668c46c91c49a2f8e967b96004607e60808110151562000f7f57fe5b01819055506f857ddf0117efa215952912839f6473e66004607f60808110151562000fa657fe5b018190555033608560006101000a81548173ffffffffffffffffffffffffffffffffffffffff021916908373ffffffffffffffffffffffffffffffffffffffff16021790555033608560006101000a81548173ffffffffffffffffffffffffffffffffffffffff021916908373ffffffffffffffffffffffffffffffffffffffff16021790555042608981905550670de0c098e6d79910608a81905550610e10608b81905550620249f0608760006101000a81548163ffffffff021916908363ffffffff1602179055506a422ca8b0a00a42500000006001819055506a422ca8b0a00a4250000000608d8190555069d3c21bcecceda1000000660162b3f37660006a422ca8b0a00a4250000000620249f063ffffffff160202811515620010c957fe5b0460868190555069d3c21bcecceda1000000660162b3f37660006a422ca8b0a00a4250000000620249f063ffffffff1602028115156200110557fe5b04608e819055506000608f8190555064060db884006088819055506a422ca8b0a00a4250000000600181905550620011e7565b828054600181600116156101000203166002900490600052602060002090601f016020900481019282601f106200117b57805160ff1916838001178555620011ac565b82800160010185558215620011ac579182015b82811115620011ab5782518255916020019190600101906200118e565b5b509050620011bb9190620011bf565b5090565b620011e491905b80821115620011e0576000816000905550600101620011c6565b5090565b90565b6138ce80620011f76000396000f300606060405260043610610225576000357c0100000000000000000000000000000000000000000000000000000000900463ffffffff16806306fdde0314610230578063095ea7b3146102be5780630ab07e88146103185780630c7d5cd814610341578063143ba4f31461037657806318160ddd1461042857806323b872dd1461045157806325f076d0146104ca578063269e3592146104ec578063277b2f971461051557806328fc33c71461053e57806329a00e7c146105795780632ff2e9dc146105d1578063313ce567146105fa57806349f9b0f71461062957806354fd4d501461068157806358db4c7c1461070f578063661884631461073857806366666aa9146107925780636cc8063e146107bb57806370299cd5146107e457806370a08231146108625780637c5e2795146108af5780638da5cb5b146108d85780638f5164381461092d57806395d89b411461095657806396365d44146109e4578063a6f2ae3a14610a0d578063a9059cbb14610a2f578063aa311dc814610a89578063b03f4d4f14610ab2578063b1741fb214610adb578063bcfaa79d14610b10578063bf1fe42014610b61578063d15e562714610b84578063d73dd62314610bb1578063dcd2af1714610c0b578063dd62ed3e14610c34578063e4849b3214610ca0578063e9bb37a014610cdb578063ed2a2d6414610d04578063f2fde38b14610d51578063f3e14f1e14610d8a578063fd748c3a14610db3578063fe173b9714610dea575b61022d610e13565b50005b341561023b57600080fd5b610243610f67565b6040518080602001828103825283818151815260200191508051906020019080838360005b83811015610283578082015181840152602081019050610268565b50505050905090810190601f1680156102b05780820380516001836020036101000a031916815260200191505b509250505060405180910390f35b34156102c957600080fd5b6102fe600480803573ffffffffffffffffffffffffffffffffffffffff16906020019091908035906020019091905050610fa0565b604051808215151515815260200191505060405180910390f35b341561032357600080fd5b61032b611092565b6040518082815260200191505060405180910390f35b341561034c57600080fd5b610354611098565b604051808263ffffffff1663ffffffff16815260200191505060405180910390f35b341561038157600080fd5b61040e600480803590602001908201803590602001908080602002602001604051908101604052809392919081815260200183836020028082843782019150505050505091908035906020019082018035906020019080806020026020016040519081016040528093929190818152602001838360200280828437820191505050505050919050506110ae565b604051808215151515815260200191505060405180910390f35b341561043357600080fd5b61043b6112d3565b6040518082815260200191505060405180910390f35b341561045c57600080fd5b6104b0600480803573ffffffffffffffffffffffffffffffffffffffff1690602001909190803573ffffffffffffffffffffffffffffffffffffffff169060200190919080359060200190919050506112dd565b604051808215151515815260200191505060405180910390f35b6104d2611697565b604051808215151515815260200191505060405180910390f35b34156104f757600080fd5b6104ff61186a565b6040518082815260200191505060405180910390f35b341561052057600080fd5b6105286118a2565b6040518082815260200191505060405180910390f35b341561054957600080fd5b61055f60048080359060200190919050506118a8565b604051808215151515815260200191505060405180910390f35b341561058457600080fd5b6105bb600480803590602001909190803590602001909190803563ffffffff1690602001909190803590602001909190505061194b565b6040518082815260200191505060405180910390f35b34156105dc57600080fd5b6105e4611a4c565b6040518082815260200191505060405180910390f35b341561060557600080fd5b61060d611a5b565b604051808260ff1660ff16815260200191505060405180910390f35b341561063457600080fd5b61066b600480803590602001909190803590602001909190803563ffffffff16906020019091908035906020019091905050611a60565b6040518082815260200191505060405180910390f35b341561068c57600080fd5b610694611b94565b6040518080602001828103825283818151815260200191508051906020019080838360005b838110156106d45780820151818401526020810190506106b9565b50505050905090810190601f1680156107015780820380516001836020036101000a031916815260200191505b509250505060405180910390f35b341561071a57600080fd5b610722611c32565b6040518082815260200191505060405180910390f35b341561074357600080fd5b610778600480803573ffffffffffffffffffffffffffffffffffffffff16906020019091908035906020019091905050611c38565b604051808215151515815260200191505060405180910390f35b341561079d57600080fd5b6107a5611ec9565b6040518082815260200191505060405180910390f35b34156107c657600080fd5b6107ce611ecf565b6040518082815260200191505060405180910390f35b34156107ef57600080fd5b610848600480803590602001909190803590602001908201803590602001908080601f01602080910402602001604051908101604052809392919081815260200183838082843782019150505050505091905050611ef8565b604051808215151515815260200191505060405180910390f35b341561086d57600080fd5b610899600480803573ffffffffffffffffffffffffffffffffffffffff169060200190919050506121bf565b6040518082815260200191505060405180910390f35b34156108ba57600080fd5b6108c2612207565b6040518082815260200191505060405180910390f35b34156108e357600080fd5b6108eb612212565b604051808273ffffffffffffffffffffffffffffffffffffffff1673ffffffffffffffffffffffffffffffffffffffff16815260200191505060405180910390f35b341561093857600080fd5b610940612238565b6040518082815260200191505060405180910390f35b341561096157600080fd5b61096961223e565b6040518080602001828103825283818151815260200191508051906020019080838360005b838110156109a957808201518184015260208101905061098e565b50505050905090810190601f1680156109d65780820380516001836020036101000a031916815260200191505b509250505060405180910390f35b34156109ef57600080fd5b6109f7612277565b6040518082815260200191505060405180910390f35b610a15610e13565b604051808215151515815260200191505060405180910390f35b3415610a3a57600080fd5b610a6f600480803573ffffffffffffffffffffffffffffffffffffffff1690602001909190803590602001909190505061227d565b604051808215151515815260200191505060405180910390f35b3415610a9457600080fd5b610a9c61249c565b6040518082815260200191505060405180910390f35b3415610abd57600080fd5b610ac56124a8565b6040518082815260200191505060405180910390f35b3415610ae657600080fd5b610aee6124ae565b604051808263ffffffff1663ffffffff16815260200191505060405180910390f35b3415610b1b57600080fd5b610b47600480803573ffffffffffffffffffffffffffffffffffffffff169060200190919050506124b5565b604051808215151515815260200191505060405180910390f35b3415610b6c57600080fd5b610b82600480803590602001909190505061251c565b005b3415610b8f57600080fd5b610b97612591565b604051808215151515815260200191505060405180910390f35b3415610bbc57600080fd5b610bf1600480803573ffffffffffffffffffffffffffffffffffffffff169060200190919080359060200190919050506126e0565b604051808215151515815260200191505060405180910390f35b3415610c1657600080fd5b610c1e6128dc565b6040518082815260200191505060405180910390f35b3415610c3f57600080fd5b610c8a600480803573ffffffffffffffffffffffffffffffffffffffff1690602001909190803573ffffffffffffffffffffffffffffffffffffffff169060200190919050506128e2565b6040518082815260200191505060405180910390f35b3415610cab57600080fd5b610cc16004808035906020019091905050612969565b604051808215151515815260200191505060405180910390f35b3415610ce657600080fd5b610cee612d4e565b6040518082815260200191505060405180910390f35b3415610d0f57600080fd5b610d3b600480803573ffffffffffffffffffffffffffffffffffffffff16906020019091905050612d54565b6040518082815260200191505060405180910390f35b3415610d5c57600080fd5b610d88600480803573ffffffffffffffffffffffffffffffffffffffff16906020019091905050612d9d565b005b3415610d9557600080fd5b610d9d612ef5565b6040518082815260200191505060405180910390f35b3415610dbe57600080fd5b610dd46004808035906020019091905050612efb565b6040518082815260200191505060405180910390f35b3415610df557600080fd5b610dfd612fd7565b6040518082815260200191505060405180910390f35b6000806088543a11151515610e2457fe5b600034111515610e3357600080fd5b610e55600154608654608760009054906101000a900463ffffffff163461194b565b9050610e6c81600154612fdd90919063ffffffff16565b600181905550610ec3816000803373ffffffffffffffffffffffffffffffffffffffff1673ffffffffffffffffffffffffffffffffffffffff16815260200190815260200160002054612fdd90919063ffffffff16565b6000803373ffffffffffffffffffffffffffffffffffffffff1673ffffffffffffffffffffffffffffffffffffffff16815260200190815260200160002081905550610f1a34608654612fdd90919063ffffffff16565b6086819055507fe7360c0fa1984a85874443100f5b25dd4f84192659660eb199f6c96e11defbcb8134604051808381526020018281526020019250505060405180910390a1600191505090565b6040805190810160405280600d81526020017f52656c6576616e74546f6b656e0000000000000000000000000000000000000081525081565b600081600260003373ffffffffffffffffffffffffffffffffffffffff1673ffffffffffffffffffffffffffffffffffffffff16815260200190815260200160002060008573ffffffffffffffffffffffffffffffffffffffff1673ffffffffffffffffffffffffffffffffffffffff168152602001908152602001600020819055508273ffffffffffffffffffffffffffffffffffffffff163373ffffffffffffffffffffffffffffffffffffffff167f8c5be1e5ebec7d5bd14f71427d1e84f3dd0314c0f7b2291e5b200ac8c7c3b925846040518082815260200191505060405180910390a36001905092915050565b608f5481565b608760009054906101000a900463ffffffff1681565b600080608560009054906101000a900473ffffffffffffffffffffffffffffffffffffffff1673ffffffffffffffffffffffffffffffffffffffff163373ffffffffffffffffffffffffffffffffffffffff1614151561110d57600080fd5b600090505b83518110156112c857828181518110151561112957fe5b906020019060200201516091541015151561114357600080fd5b61116f838281518110151561115457fe5b90602001906020020151609154612ffb90919063ffffffff16565b609181905550828181518110151561118357fe5b90602001906020020151600080868481518110151561119e57fe5b9060200190602002015173ffffffffffffffffffffffffffffffffffffffff1673ffffffffffffffffffffffffffffffffffffffff168152602001908152602001600020540160008086848151811015156111f557fe5b9060200190602002015173ffffffffffffffffffffffffffffffffffffffff1673ffffffffffffffffffffffffffffffffffffffff16815260200190815260200160002081905550838181518110151561124b57fe5b9060200190602002015173ffffffffffffffffffffffffffffffffffffffff1660007fddf252ad1be2c89b69c2b068fc378daa952ba7f163c4a11628f55a4df523b3ef858481518110151561129c57fe5b906020019060200201516040518082815260200191505060405180910390a38080600101915050611112565b600191505092915050565b6000600154905090565b60008073ffffffffffffffffffffffffffffffffffffffff168373ffffffffffffffffffffffffffffffffffffffff161415151561131a57600080fd5b6000808573ffffffffffffffffffffffffffffffffffffffff1673ffffffffffffffffffffffffffffffffffffffff16815260200190815260200160002054821115151561136757600080fd5b600260008573ffffffffffffffffffffffffffffffffffffffff1673ffffffffffffffffffffffffffffffffffffffff16815260200190815260200160002060003373ffffffffffffffffffffffffffffffffffffffff1673ffffffffffffffffffffffffffffffffffffffff1681526020019081526020016000205482111515156113f257600080fd5b611443826000808773ffffffffffffffffffffffffffffffffffffffff1673ffffffffffffffffffffffffffffffffffffffff16815260200190815260200160002054612ffb90919063ffffffff16565b6000808673ffffffffffffffffffffffffffffffffffffffff1673ffffffffffffffffffffffffffffffffffffffff168152602001908152602001600020819055506114d6826000808673ffffffffffffffffffffffffffffffffffffffff1673ffffffffffffffffffffffffffffffffffffffff16815260200190815260200160002054612fdd90919063ffffffff16565b6000808573ffffffffffffffffffffffffffffffffffffffff1673ffffffffffffffffffffffffffffffffffffffff168152602001908152602001600020819055506115a782600260008773ffffffffffffffffffffffffffffffffffffffff1673ffffffffffffffffffffffffffffffffffffffff16815260200190815260200160002060003373ffffffffffffffffffffffffffffffffffffffff1673ffffffffffffffffffffffffffffffffffffffff16815260200190815260200160002054612ffb90919063ffffffff16565b600260008673ffffffffffffffffffffffffffffffffffffffff1673ffffffffffffffffffffffffffffffffffffffff16815260200190815260200160002060003373ffffffffffffffffffffffffffffffffffffffff1673ffffffffffffffffffffffffffffffffffffffff168152602001908152602001600020819055508273ffffffffffffffffffffffffffffffffffffffff168473ffffffffffffffffffffffffffffffffffffffff167fddf252ad1be2c89b69c2b068fc378daa952ba7f163c4a11628f55a4df523b3ef846040518082815260200191505060405180910390a3600190509392505050565b600080608560009054906101000a900473ffffffffffffffffffffffffffffffffffffffff1673ffffffffffffffffffffffffffffffffffffffff163373ffffffffffffffffffffffffffffffffffffffff161415156116f657600080fd5b600034118015611708575034608e5410155b151561171357600080fd5b61173c608e5461172e34608d5461301490919063ffffffff16565b61304f90919063ffffffff16565b90503373ffffffffffffffffffffffffffffffffffffffff166108fc349081150290604051600060405180830381858888f19350505050151561177e57600080fd5b61179334608654612fdd90919063ffffffff16565b6086819055506117ae34608e54612ffb90919063ffffffff16565b608e81905550611805816000803373ffffffffffffffffffffffffffffffffffffffff1673ffffffffffffffffffffffffffffffffffffffff16815260200190815260200160002054612fdd90919063ffffffff16565b6000803373ffffffffffffffffffffffffffffffffffffffff1673ffffffffffffffffffffffffffffffffffffffff1681526020019081526020016000208190555061185c81608d54612ffb90919063ffffffff16565b608d81905550600191505090565b69d3c21bcecceda1000000660162b3f37660006a422ca8b0a00a4250000000620249f063ffffffff16020281151561189e57fe5b0481565b608d5481565b6000608560009054906101000a900473ffffffffffffffffffffffffffffffffffffffff1673ffffffffffffffffffffffffffffffffffffffff163373ffffffffffffffffffffffffffffffffffffffff1614151561190657600080fd5b609154821115151561191757600080fd5b61192c82609154612ffb90919063ffffffff16565b6091819055508160906000828254019250508190555060019050919050565b600080600080600080891180156119625750600088115b8015611974575060008763ffffffff16115b801561198f5750620f424063ffffffff168763ffffffff1611155b151561199a57600080fd5b60008614156119ac5760009450611a40565b620f424063ffffffff168763ffffffff1614156119ef576119e8886119da888c61301490919063ffffffff16565b61304f90919063ffffffff16565b9450611a40565b611a028887612fdd90919063ffffffff16565b9150611a13828989620f424061306a565b80945081955050508260ff16611a32858b61301490919063ffffffff16565b9060020a9004905088810394505b50505050949350505050565b6a422ca8b0a00a425000000081565b601281565b60008060008060008060008a118015611a795750600089115b8015611a8b575060008863ffffffff16115b8015611aa65750620f424063ffffffff168863ffffffff1611155b8015611ab25750898711155b1515611abd57600080fd5b6000871415611acf5760009550611b87565b89871415611adf57889550611b87565b620f424063ffffffff168863ffffffff161415611b2257611b1b8a611b0d898c61301490919063ffffffff16565b61304f90919063ffffffff16565b9550611b87565b868a039250611b368a84620f42408b61306a565b8095508196505050611b51858a61301490919063ffffffff16565b91508360ff16899060020a029050611b8485611b768385612ffb90919063ffffffff16565b61304f90919063ffffffff16565b95505b5050505050949350505050565b60848054600181600116156101000203166002900480601f016020809104026020016040519081016040528092919081815260200182805460018160011615610100020316600290048015611c2a5780601f10611bff57610100808354040283529160200191611c2a565b820191906000526020600020905b815481529060010190602001808311611c0d57829003601f168201915b505050505081565b60895481565b600080600260003373ffffffffffffffffffffffffffffffffffffffff1673ffffffffffffffffffffffffffffffffffffffff16815260200190815260200160002060008573ffffffffffffffffffffffffffffffffffffffff1673ffffffffffffffffffffffffffffffffffffffff16815260200190815260200160002054905080831115611d49576000600260003373ffffffffffffffffffffffffffffffffffffffff1673ffffffffffffffffffffffffffffffffffffffff16815260200190815260200160002060008673ffffffffffffffffffffffffffffffffffffffff1673ffffffffffffffffffffffffffffffffffffffff16815260200190815260200160002081905550611ddd565b611d5c8382612ffb90919063ffffffff16565b600260003373ffffffffffffffffffffffffffffffffffffffff1673ffffffffffffffffffffffffffffffffffffffff16815260200190815260200160002060008673ffffffffffffffffffffffffffffffffffffffff1673ffffffffffffffffffffffffffffffffffffffff168152602001908152602001600020819055505b8373ffffffffffffffffffffffffffffffffffffffff163373ffffffffffffffffffffffffffffffffffffffff167f8c5be1e5ebec7d5bd14f71427d1e84f3dd0314c0f7b2291e5b200ac8c7c3b925600260003373ffffffffffffffffffffffffffffffffffffffff1673ffffffffffffffffffffffffffffffffffffffff16815260200190815260200160002060008873ffffffffffffffffffffffffffffffffffffffff1673ffffffffffffffffffffffffffffffffffffffff168152602001908152602001600020546040518082815260200191505060405180910390a3600191505092915050565b60915481565b600080608b54905080608954811515611ee457fe5b048142811515611ef057fe5b040391505090565b6000808360905410151515611f0c57600080fd5b8333609260003373ffffffffffffffffffffffffffffffffffffffff1673ffffffffffffffffffffffffffffffffffffffff16815260200190815260200160002054604051808481526020018373ffffffffffffffffffffffffffffffffffffffff1673ffffffffffffffffffffffffffffffffffffffff166c010000000000000000000000000281526014018281526020019350505050604051809103902090508060405180807f19457468657265756d205369676e6564204d6573736167653a0a333200000000815250601c0182600019166000191681526020019150506040518091039020905061200d8382600019166130c790919063ffffffff16565b73ffffffffffffffffffffffffffffffffffffffff16608560009054906101000a900473ffffffffffffffffffffffffffffffffffffffff1673ffffffffffffffffffffffffffffffffffffffff1614151561206857600080fd5b6001609260003373ffffffffffffffffffffffffffffffffffffffff1673ffffffffffffffffffffffffffffffffffffffff168152602001908152602001600020600082825401925050819055506120cb84609054612ffb90919063ffffffff16565b609081905550612122846000803373ffffffffffffffffffffffffffffffffffffffff1673ffffffffffffffffffffffffffffffffffffffff16815260200190815260200160002054612fdd90919063ffffffff16565b6000803373ffffffffffffffffffffffffffffffffffffffff1673ffffffffffffffffffffffffffffffffffffffff168152602001908152602001600020819055503373ffffffffffffffffffffffffffffffffffffffff1660007fddf252ad1be2c89b69c2b068fc378daa952ba7f163c4a11628f55a4df523b3ef866040518082815260200191505060405180910390a3600191505092915050565b60008060008373ffffffffffffffffffffffffffffffffffffffff1673ffffffffffffffffffffffffffffffffffffffff168152602001908152602001600020549050919050565b660162b3f376600081565b608560009054906101000a900473ffffffffffffffffffffffffffffffffffffffff1681565b608b5481565b6040805190810160405280600381526020017f524e54000000000000000000000000000000000000000000000000000000000081525081565b60865481565b60008073ffffffffffffffffffffffffffffffffffffffff168373ffffffffffffffffffffffffffffffffffffffff16141515156122ba57600080fd5b6000803373ffffffffffffffffffffffffffffffffffffffff1673ffffffffffffffffffffffffffffffffffffffff16815260200190815260200160002054821115151561230757600080fd5b612358826000803373ffffffffffffffffffffffffffffffffffffffff1673ffffffffffffffffffffffffffffffffffffffff16815260200190815260200160002054612ffb90919063ffffffff16565b6000803373ffffffffffffffffffffffffffffffffffffffff1673ffffffffffffffffffffffffffffffffffffffff168152602001908152602001600020819055506123eb826000808673ffffffffffffffffffffffffffffffffffffffff1673ffffffffffffffffffffffffffffffffffffffff16815260200190815260200160002054612fdd90919063ffffffff16565b6000808573ffffffffffffffffffffffffffffffffffffffff1673ffffffffffffffffffffffffffffffffffffffff168152602001908152602001600020819055508273ffffffffffffffffffffffffffffffffffffffff163373ffffffffffffffffffffffffffffffffffffffff167fddf252ad1be2c89b69c2b068fc378daa952ba7f163c4a11628f55a4df523b3ef846040518082815260200191505060405180910390a36001905092915050565b670de0c098e6d7991081565b608a5481565b620249f081565b6000608560009054906101000a900473ffffffffffffffffffffffffffffffffffffffff1673ffffffffffffffffffffffffffffffffffffffff163373ffffffffffffffffffffffffffffffffffffffff1614151561251357600080fd5b60009050919050565b608560009054906101000a900473ffffffffffffffffffffffffffffffffffffffff1673ffffffffffffffffffffffffffffffffffffffff163373ffffffffffffffffffffffffffffffffffffffff1614151561257857600080fd5b60008111151561258757600080fd5b8060888190555050565b600080600080608560009054906101000a900473ffffffffffffffffffffffffffffffffffffffff1673ffffffffffffffffffffffffffffffffffffffff163373ffffffffffffffffffffffffffffffffffffffff161415156125f357600080fd5b61260a608d54600154612ffb90919063ffffffff16565b925061261583612efb565b9150608b54905080814281151561262857fe5b04026089819055507fc5afe0d1e3743306067bb00d0a7c1f30b9ac58f3775a0f12a25f3cfb35c406ce826040518080602001838152602001828103825260098152602001807f6e6577546f6b656e7300000000000000000000000000000000000000000000008152506020019250505060405180910390a16126b582608f54612fdd90919063ffffffff16565b608f819055506126d082609154612fdd90919063ffffffff16565b6091819055506001935050505090565b600061277182600260003373ffffffffffffffffffffffffffffffffffffffff1673ffffffffffffffffffffffffffffffffffffffff16815260200190815260200160002060008673ffffffffffffffffffffffffffffffffffffffff1673ffffffffffffffffffffffffffffffffffffffff16815260200190815260200160002054612fdd90919063ffffffff16565b600260003373ffffffffffffffffffffffffffffffffffffffff1673ffffffffffffffffffffffffffffffffffffffff16815260200190815260200160002060008573ffffffffffffffffffffffffffffffffffffffff1673ffffffffffffffffffffffffffffffffffffffff168152602001908152602001600020819055508273ffffffffffffffffffffffffffffffffffffffff163373ffffffffffffffffffffffffffffffffffffffff167f8c5be1e5ebec7d5bd14f71427d1e84f3dd0314c0f7b2291e5b200ac8c7c3b925600260003373ffffffffffffffffffffffffffffffffffffffff1673ffffffffffffffffffffffffffffffffffffffff16815260200190815260200160002060008773ffffffffffffffffffffffffffffffffffffffff1673ffffffffffffffffffffffffffffffffffffffff168152602001908152602001600020546040518082815260200191505060405180910390a36001905092915050565b608e5481565b6000600260008473ffffffffffffffffffffffffffffffffffffffff1673ffffffffffffffffffffffffffffffffffffffff16815260200190815260200160002060008373ffffffffffffffffffffffffffffffffffffffff1673ffffffffffffffffffffffffffffffffffffffff16815260200190815260200160002054905092915050565b60008060008060008060006088543a1115151561298257fe5b6000881180156129d05750876000803373ffffffffffffffffffffffffffffffffffffffff1673ffffffffffffffffffffffffffffffffffffffff1681526020019081526020016000205410155b15156129db57600080fd5b6001549550612a09608d546129fb608f5489612fdd90919063ffffffff16565b612ffb90919063ffffffff16565b9450848811151515612a1a57600080fd5b608e54608654039350608f548601670de0b6b3a764000087608760009054906101000a900463ffffffff1663ffffffff160202811515612a5657fe5b049250670de0b6b3a76400006001670de0b6b3a7640000850103811515612a7957fe5b049150612a888585848b611a60565b90507f95e9a5cc87ab04314170261349503d2d37e8ad3c9164e3d393d49e9c12143cba8260405180806020018363ffffffff168152602001828103825260108152602001807f73656c6c52657365727665526174696f000000000000000000000000000000008152506020019250505060405180910390a17f95e9a5cc87ab04314170261349503d2d37e8ad3c9164e3d393d49e9c12143cba816040518080602001838152602001828103825260098152602001807f657468416d6f756e7400000000000000000000000000000000000000000000008152506020019250505060405180910390a17f95e9a5cc87ab04314170261349503d2d37e8ad3c9164e3d393d49e9c12143cba3073ffffffffffffffffffffffffffffffffffffffff163160405180806020018381526020018281038252600c8152602001807f746869732e62616c616e636500000000000000000000000000000000000000008152506020019250505060405180910390a13373ffffffffffffffffffffffffffffffffffffffff166108fc829081150290604051600060405180830381858888f193505050501515612c3757600080fd5b612c4c81608654612ffb90919063ffffffff16565b608681905550612ca3886000803373ffffffffffffffffffffffffffffffffffffffff1673ffffffffffffffffffffffffffffffffffffffff16815260200190815260200160002054612ffb90919063ffffffff16565b6000803373ffffffffffffffffffffffffffffffffffffffff1673ffffffffffffffffffffffffffffffffffffffff16815260200190815260200160002081905550612cfa88600154612ffb90919063ffffffff16565b6001819055507f210405eb88ac7589aa9de0a6e36b9c9d3cd6e4061b74363d250a77afe3c6efb78882604051808381526020018281526020019250505060405180910390a160019650505050505050919050565b610e1081565b6000609260008373ffffffffffffffffffffffffffffffffffffffff1673ffffffffffffffffffffffffffffffffffffffff168152602001908152602001600020549050919050565b608560009054906101000a900473ffffffffffffffffffffffffffffffffffffffff1673ffffffffffffffffffffffffffffffffffffffff163373ffffffffffffffffffffffffffffffffffffffff16141515612df957600080fd5b600073ffffffffffffffffffffffffffffffffffffffff168173ffffffffffffffffffffffffffffffffffffffff1614151515612e3557600080fd5b8073ffffffffffffffffffffffffffffffffffffffff16608560009054906101000a900473ffffffffffffffffffffffffffffffffffffffff1673ffffffffffffffffffffffffffffffffffffffff167f8be0079c531659141344cd1fd0a4f28419497f9722a3daafe3b4186f6b6457e060405160405180910390a380608560006101000a81548173ffffffffffffffffffffffffffffffffffffffff021916908373ffffffffffffffffffffffffffffffffffffffff16021790555050565b60905481565b6000806000806000806000608a549550608b54945042935084608954811515612f2057fe5b048585811515612f2c57fe5b04039250600083111515612f3f57600080fd5b859150600190505b82811015612f8b57612f7c670de0b6b3a7640000612f6e888561301490919063ffffffff16565b61304f90919063ffffffff16565b91508080600101915050612f47565b612fca88612fbc670de0b6b3a7640000612fae868d61301490919063ffffffff16565b61304f90919063ffffffff16565b612ffb90919063ffffffff16565b9650505050505050919050565b60885481565b6000808284019050838110151515612ff157fe5b8091505092915050565b600082821115151561300957fe5b818303905092915050565b60008060008414156130295760009150613048565b828402905082848281151561303a57fe5b0414151561304457fe5b8091505b5092915050565b600080828481151561305d57fe5b0490508091505092915050565b6000806000808463ffffffff168663ffffffff166130888a8a6131c5565b0281151561309257fe5b04915061309e8261332c565b90506130b781607f0360ff16839060020a9004826133ec565b8193509350505094509492505050565b600080600080604185511415156130e157600093506131bc565b6020850151925060408501519150606085015160001a9050601b8160ff16101561310c57601b810190505b601b8160ff16141580156131245750601c8160ff1614155b1561313257600093506131bc565b600186828585604051600081526020016040526000604051602001526040518085600019166000191681526020018460ff1660ff16815260200183600019166000191681526020018260001916600019168152602001945050505050602060405160208103908084039060008661646e5a03f115156131b057600080fd5b50506020604051035193505b50505092915050565b60008060008060007001ffffffffffffffffffffffffffffffff87111515156131ea57fe5b60009350856f80000000000000000000000000000000880281151561320b57fe5b049250700100000000000000000000000000000000831015156132745761324c6f800000000000000000000000000000008481151561324657fe5b04613810565b91508160ff16839060020a900492506f800000000000000000000000000000008260ff160293505b6f8000000000000000000000000000000083111561330257607f90505b60008160ff161115613301576f800000000000000000000000000000008384028115156132ba57fe5b049250700100000000000000000000000000000000831015156132f5576001839060020a900492506001810360ff1660019060020a02840193505b80600190039050613291565b5b607a60ff166f02c5c85fdf473de6af278ece600fcbda85029060020a900494505050505092915050565b60008060008060209250607f91505b8160ff166001840160ff16101561338d57600282840160ff1681151561335d57fe5b0490508460048260ff1660808110151561337357fe5b015410151561338457809250613388565b8091505b61333b565b8460048360ff166080811015156133a057fe5b01541015156133b1578193506133e4565b8460048460ff166080811015156133c457fe5b01541015156133d5578293506133e4565b600015156133df57fe5b600093505b505050919050565b6000806000849150600090508360ff168583029060020a900491506f03442c4e6074a82f1797f72ac00000008202810190508360ff168583029060020a900491506f0116b96f757c380fb287fd0e400000008202810190508360ff168583029060020a900491506e45ae5bdd5f0e03eca1ff43900000008202810190508360ff168583029060020a900491506e0defabf91302cd95b9ffda500000008202810190508360ff168583029060020a900491506e02529ca9832b22439efff9b80000008202810190508360ff168583029060020a900491506d54f1cf12bd04e516b6da880000008202810190508360ff168583029060020a900491506d0a9e39e257a09ca2d6db510000008202810190508360ff168583029060020a900491506d012e066e7b839fa050c3090000008202810190508360ff168583029060020a900491506c1e33d7d926c329a1ad1a8000008202810190508360ff168583029060020a900491506c02bee513bdb4a6b19b5f8000008202810190508360ff168583029060020a900491506b3a9316fa79b88eccf2a000008202810190508360ff168583029060020a900491506b048177ebe1fa8123752000008202810190508360ff168583029060020a900491506a5263fe90242dcbacf000008202810190508360ff168583029060020a900491506a057e22099c030d941000008202810190508360ff168583029060020a900491506957e22099c030d94100008202810190508360ff168583029060020a9004915069052b6b545699763100008202810190508360ff168583029060020a90049150684985f67696bf7480008202810190508360ff168583029060020a900491506803dea12ea99e4980008202810190508360ff168583029060020a900491506731880f2214b6e0008202810190508360ff168583029060020a9004915067025bcff56eb360008202810190508360ff168583029060020a90049150661b722e10ab10008202810190508360ff168583029060020a900491506601317c700770008202810190508360ff168583029060020a90049150650cba84aafa008202810190508360ff168583029060020a900491506482573a0a008202810190508360ff168583029060020a900491506405035ad9008202810190508360ff168583029060020a90049150632f881b008202810190508360ff168583029060020a900491506301b293408202810190508360ff168583029060020a90049150620efc408202810190508360ff168583029060020a90049150617fe08202810190508360ff168583029060020a900491506104208202810190508360ff168583029060020a9004915060218202810190508360ff168583029060020a9004915060018202810190508360ff1660019060020a02856f0688589cc0e9505e2f2fee55800000008381151561380357fe5b0401019250505092915050565b6000806000806000925084915061010082101561384c575b6001821115613847576001829060020a90049150600183019250613828565b613897565b608090505b60008160ff161115613896578060ff1660019060020a0282101515613883578060ff16829060020a9004915080831792505b60018160ff169060020a90049050613851565b5b8293505050509190505600a165627a7a723058204f86b011d097ea306bcb8f032e78ff154b91c95bff3c098481aaa390931e66070029",
  "source": "pragma solidity ^0.4.18;\n\nimport \"zeppelin-solidity/contracts/token/ERC20/StandardToken.sol\";\nimport \"zeppelin-solidity/contracts/ownership/Ownable.sol\";\nimport \"./RelevantBondingCurve.sol\";\n\ncontract RelevantCoin is RelevantBondingCurve {\n  string public constant name = \"RelevantToken\";\n  string public constant symbol = \"RNT\";\n  uint8 public constant decimals = 18;\n\n  uint256 public constant TIME_INTERVAL = 1 hours;\n  uint256 public constant HOURLY_INFLATION = 1000010880216701200; // 10% annual\n  // uint256 public constant INITIAL_SUPPLY = 10000 * (10 ** uint256(decimals));\n  uint256 public constant INITIAL_SUPPLY = 80000000 * (10 ** 18);\n  uint256 public constant INITIAL_PRICE = 39 * (10 ** 13);\n  uint32 public constant CURVE_RATIO = 150000;\n  uint256 public constant INITAL_BALANCE = CURVE_RATIO * INITIAL_SUPPLY * INITIAL_PRICE / (1000000 * 10 ** 18);\n\n  event Log(string logString, uint value);\n\n\t/**\n\t * @dev Constructor that gives msg.sender all of existing tokens.\n\t */\n  function RelevantCoin() public {\n    owner = msg.sender;\n\n    // inflation params\n    lastInflationCalc = now;\n    inflationRatePerInterval = HOURLY_INFLATION;\n    timeInterval = TIME_INTERVAL;\n\n    // bonding curve params\n    reserveRatio = CURVE_RATIO;\n    totalSupply_ = INITIAL_SUPPLY;\n    virtualSupply = INITIAL_SUPPLY;\n    poolBalance = INITAL_BALANCE;\n    virtualBalance = INITAL_BALANCE;\n    inflationSupply = 0;\n    gasPrice = 26 * (10 ** 9);\n\n    // token params\n    totalSupply_ = INITIAL_SUPPLY;\n    // balances[owner] = INITIAL_SUPPLY;\n    // Transfer(0x0, owner, INITIAL_SUPPLY);\n  }\n\n}\n",
  "sourcePath": "/Users/slavab/local/relevantSmartContracts/relevantCoin/contracts/RelevantCoin.sol",
  "compiler": {
    "name": "solc",
    "version": "0.4.19+commit.c4cbbb05.Emscripten.clang"
  },
  "schemaVersion": "2.0.0",
  "updatedAt": "2018-04-26T20:38:04.776Z"
}